:0400000084EF3CF05D
:1000080000C016F001C015F0E1CF17F0E2CF18F0EC
:100018009EAA23D003EC3CF000C0D3F500500D0A93
:100028000CE1B40E00017625E16E010E7721E26E37
:10003800E66A010E02019B6F0FD00501D3510A0A2F
:100048000BE0B40E00017625E16E010E7721E26E19
:10005800D3C5E6FF764B772B9E9AA4AA21D0B10E82
:100068000101452508012E6F020E010146210801F4
:100078002F6F0CEC3CF02EC8E1FF2FC8E2FF00C048
:10008800E6FF0101454B462B4651030A02E1000EEB
:10009800451905E1456B466B010E0201AE6FA49A46
:1000A80016C000F015C001F017C0E1FF18C0E2FF4C
:0200B800110035
:0E00BA00030E0D6E0D2EFED70000000012008A
:0E00C8008D802DC888FF909400009084120057
:0E00D6008D902DC888FF909400009084120039
:0E00E400A8B202D00000FCD72DC8A9FF120060
:0E00F200ADB202D00000FCD72DC8AEFF120048
:100100008C9490828D802DC888FF909490848C84EC
:06011000D4DFD3DF120072
:10011600D1DFD0DF8C9490828D902DC888FF90948B
:0601260090848C8412009D
:10012C00F250026EF29E0500FF6A0150FE6E005006
:08013C00FD6E02BEF28E1200FE
:0601440041C100F01200B1
:10014A00C4C5E1FFC5C5E2FF2A0EE66EC2C500F0CE
:10015A00C3C501F0E6DF1AC800F0016AC0C5E1FFB5
:10016A00C1C5E2FF00C0E6FFBEC500F0BFC501F091
:10017A00D8DFC0C5E1FFC1C5E2FF19C8E6FFBEC5A9
:10018A0000F0BFC501F0CDDFC4C5E1FFC5C5E2FF80
:10019A002B0EE66EC2C500F0C3C501F0C2DF1CC853
:1001AA0000F0016AC0C5E1FFC1C5E2FF00C0E6FF79
:1001BA00BEC500F0BFC501F0B4DFC0C5E1FFC1C5CF
:1001CA00E2FF1BC8E6FFBEC500F0BFC501F0A9DF0C
:1001DA00C4C5E1FFC5C5E2FF2C0EE66EC2C500F03C
:0801EA00C3C501F09EDF120005
:1001F200C4C5E1FFC5C5E2FF2A0EE66EC2C500F026
:10020200C3C501F092DFC0C5E1FFC1C5E2FF1AC854
:10021200E6FFBEC500F0BFC501F087DFC0C5E1FF44
:10022200C1C5E2FF19C8E6FFBEC500F0BFC501F0B7
:100232007CDFC4C5E1FFC5C5E2FF2B0EE66EC2C579
:1002420000F0C3C501F071DFC0C5E1FFC1C5E2FF27
:100252001CC8E6FFBEC500F0BFC501F066DFC0C521
:10026200E1FFC1C5E2FF1BC8E6FFBEC500F0BFC586
:1002720001F05BDFC4C5E1FFC5C5E2FF2C0EE66EEF
:0C028200C2C500F0C3C501F050DF12003F
:10028E00C4C5E1FFC5C5E2FF020EE66EC2C500F0B1
:10029E00C3C501F044DF1AC800F0016AC0C5E1FF12
:1002AE00C1C5E2FF00C0E6FFBEC500F0BFC501F04C
:1002BE0036DFC4C5E1FFC5C5E2FF030EE66EC2C55B
:1002CE0000F0C3C501F02BDFC0C5E1FFC1C5E2FFE1
:1002DE0019C8E6FFBEC500F0BFC501F020DFC4C5DA
:1002EE00E1FFC5C5E2FF060EE66EC2C500F0C3C54E
:1002FE0001F015DF1CC800F0016AC0C5E1FFC1C5E1
:10030E00E2FF00C0E6FFBEC500F0BFC501F007DF8B
:10031E00C4C5E1FFC5C5E2FF070EE66EC2C500F01B
:10032E00C3C501F0FCDEC0C5E1FFC1C5E2FF1BC8BD
:10033E00E6FFBEC500F0BFC501F0F1DEC4C5E1FFAA
:10034E00C5C5E2FF220EE66EC2C500F0C3C501F0C0
:04035E00E6DE1200C5
:10036200C4C5E1FFC5C5E2FF2A0EE66EC2C500F0B4
:10037200C3C501F0DADE1AC800F0016AC0C5E1FFA8
:10038200C1C5E2FF00C0E6FFBEC500F0BFC501F077
:10039200CCDEC0C5E1FFC1C5E2FF19C8E6FFBEC59C
:1003A20000F0BFC501F0C1DEC4C5E1FFC5C5E2FF73
:1003B2002B0EE66EC2C500F0C3C501F0B6DE1CC846
:1003C20000F0016AC0C5E1FFC1C5E2FF00C0E6FF5F
:1003D200BEC500F0BFC501F0A8DEC0C5E1FFC1C5C2
:1003E200E2FF1BC8E6FFBEC500F0BFC501F09DDEFF
:1003F200C4C5E1FFC5C5E2FF2C0EE66EC2C500F022
:08040200C3C501F092DE1200F7
:10040A000B0E026E19C800F01AC801F0025005E07E
:10041A0001320032019EFF0FFAD700C01BF81BC839
:10042A0000F000360090003600900036009000C0C0
:10043A001BF8070E006E1BC801F0005004E00132E1
:10044A00019EFF0FFBD70150010A03E1070E0801C5
:10045A001B271BC82DF84FDE050E026E19C800F0C7
:10046A001AC801F0025005E001320032019EFF0F66
:10047A00FAD700C01BF81BC800F0003600900036FF
:10048A00009000C01BF8070E006E1BC801F0005058
:10049A0004E00132019EFF0FFBD70150010A03E17C
:1004AA000801030E1B271BC82DF825DE030E016E5B
:1004BA0019C800F0015004E000360090FF0FFBD786
:1004CA0000C01BF8070E006E1BC801F0005004E0C4
:1004DA000132019EFF0FFBD70150010A03E1080117
:0C04EA00070E1B271BC82DF806DE1200B1
:1004F6008D801AC888FF90940000908419C888FFE0
:080506009094000090841200A3
:10050E00C4C5E1FFC5C5E2FF2A0EE66EC2C500F006
:10051E00C3C501F004DE1AC800F0016AC0C5E1FFD0
:10052E00C1C5E2FF00C0E6FFBEC500F0BFC501F0C9
:10053E00F6DDC0C5E1FFC1C5E2FF19C8E6FFBEC5C5
:10054E0000F0BFC501F0EBDDC4C5E1FFC5C5E2FF9C
:10055E002B0EE66EC2C500F0C3C501F0E0DD1CC86F
:10056E0000F0016AC0C5E1FFC1C5E2FF00C0E6FFB1
:10057E00BEC500F0BFC501F0D2DDC0C5E1FFC1C5EB
:10058E00E2FF1BC8E6FFBEC500F0BFC501F0C7DD28
:10059E00C4C5E1FFC5C5E2FF2C0EE66EC2C500F074
:0805AE00C3C501F0BCDD120021
:1005B60002018151010802E18051E00807E37F5101
:1005C600010802E17E51E00801E30AD0200E08018D
:1005D600296F030E2A6FE00E2B6F010E2C6F09D0C8
:1005E6000801E00E296F010E2A6F100E2B6F010E07
:1005F6002C6F010144515A0A3BE1A1DD00521CE077
:10060600010E0801295D006E000E2A59016E1F5168
:10061600005C216F20510158226F1B51005C236F33
:100626001C510158246F19C825F81AC826F81DC888
:1006360027F81EC828F81BD008011BC821F81CC8BB
:1006460022F81FC823F820C824F8010E2B5D006E7F
:10065600000E2C59016E1D51005C256F1E5101586C
:10066600266F1951005C276F1A510158286F39D02F
:1006760066DD005226E00801010E295D006E000EBF
:100686002A59016E1D51005C216F1E510158226FBF
:100696001951005C236F1A510158246F010E2B5D0E
:1006A600006E000E2C59016E1F51005C256F205103
:1006B6000158266F1B51005C276F1C510158286F8B
:1006C60010D019C821F81AC822F81DC823F81EC868
:1006D60024F81BC825F81CC826F81FC827F820C808
:1006E60028F8C4C5E1FFC5C5E2FF2A0EE66EC2C5FD
:1006F60000F0C3C501F017DD22C800F0016AC0C5CD
:10070600E1FFC1C5E2FF00C0E6FFBEC500F0BFC500
:1007160001F009DDC0C5E1FFC1C5E2FF21C8E6FF62
:10072600BEC500F0BFC501F0FEDC24C800F0016ABA
:10073600C0C5E1FFC1C5E2FF00C0E6FFBEC500F0CF
:10074600BFC501F0F0DCC0C5E1FFC1C5E2FF23C8AB
:10075600E6FFBEC500F0BFC501F0E5DCC4C5E1FF9C
:10076600C5C5E2FF2B0EE66EC2C500F0C3C501F09B
:10077600DADC26C800F0016AC0C5E1FFC1C5E2FFA8
:1007860000C0E6FFBEC500F0BFC501F0CCDCC0C5A9
:10079600E1FFC1C5E2FF25C8E6FFBEC500F0BFC543
:1007A60001F0C1DC28C800F0016AC0C5E1FFC1C57F
:1007B600E2FF00C0E6FFBEC500F0BFC501F0B3DC36
:1007C600C0C5E1FFC1C5E2FF27C8E6FFBEC500F010
:1007D600BFC501F0A8DCC4C5E1FFC5C5E2FF2C0E0C
:0E07E600E66EC2C500F0C3C501F09DDC120036
:1007F4000B1E0A1E091E081E082AD8B4092AD8B4DA
:080804000A2AD8B40B2A1200E5
:10080C000450085E0550D8A0053C095E0650D8A0DF
:10081C00063C0A5E0750D8A0073C0B5E0336070E59
:10082C000C6E0334083609360A360B36045003A016
:10083C000ED0085E0550D8A0053C095E0650D8A025
:10084C00063C0A5E0750D8A0073C0B5E0DD008266C
:10085C000550D8B0053C09260650D8B0063C0A26EF
:10086C000750D8B0073C0B2603360C2EDAD70234CF
:10087C00083609360A360B36045003A00ED0085E33
:10088C000550D8A0053C095E0650D8A0063C0A5E6F
:10089C000750D8A0073C0B5E0DD008260550D8B0E9
:1008AC00053C09260650D8B0063C0A260750D8B09D
:1008BC00073C0B260236070E0C6E0234083609363E
:1008CC000A360B36045002A00ED0085E0550D8A094
:1008DC00053C095E0650D8A0063C0A5E0750D8A01D
:1008EC00073C0B5E0DD008260550D8B0053C0926F8
:1008FC000650D8B0063C0A260750D8B0073C0B2649
:10090C0002360C2EDAD70134083609360A360B3685
:10091C00045002A00ED0085E0550D8A0053C095E1C
:10092C000650D8A0063C0A5E0750D8A0073C0B5EC8
:10093C000DD008260550D8B0053C09260650D8B075
:10094C00063C0A260750D8B0073C0B260136070E8A
:10095C000C6E0134083609360A360B36045001A0E9
:10096C000ED0085E0550D8A0053C095E0650D8A0F4
:10097C00063C0A5E0750D8A0073C0B5E0DD008263B
:10098C000550D8B0053C09260650D8B0063C0A26BE
:10099C000750D8B0073C0B2601360C2EDAD70034A2
:1009AC00083609360A360B36045001A00ED0085E04
:1009BC000550D8A0053C095E0650D8A0063C0A5E3E
:1009CC000750D8A0073C0B5E0DD008260550D8B0B8
:1009DC00053C09260650D8B0063C0A260750D8B06C
:1009EC00073C0B260036070E0C6E00340836093611
:1009FC000A360B36045000A00ED0085E0550D8A065
:100A0C00053C095E0650D8A0063C0A5E0750D8A0EB
:100A1C00073C0B5E0DD008260550D8B0053C0926C6
:100A2C000650D8B0063C0A260750D8B0073C0B2617
:100A3C0000360C2EDAD700B00ED004500826055024
:100A4C00D8B0053C09260650D8B0063C0A260750FB
:080A5C00D8B0073C0B26120084
:060A640049C100F0120080
:100A6A000B0E006E0BC802F00CC803F0005005E034
:100A7A0003320232039EFF0FFAD7030E016E02C041
:100A8A0000F0015004E000360090FF0FFBD70DC8BC
:100A9A00E1FF0EC8E2FF00C0E6FF050E006E0BC8BC
:100AAA0002F00CC803F0005005E003320232039E44
:100ABA00FF0FFAD702C000F000360090003600900F
:100ACA000FC8E1FF10C8E2FF00C0E6FF030E016E87
:100ADA000BC800F0015004E000360090FF0FFBD76E
:0E0AEA0011C8E1FF12C8E2FF00C0E6FF1200D3
:100AF800220E0C6E086A096A0A6A0B6A0C06D8B4D8
:100B08001FD0D8900B320A3209320832033202322F
:100B180001320032D8A0F2D70C06D8B409D004505C
:100B280008260550092206500A2207500B22EAD748
:100B3800045008260550092206500A2207500B22A5
:020B4800120099
:100B4A000450000A12E10550000A0FE10650000A9B
:100B5A000CE10750000A09E1FF0E006EFF0E016E5C
:100B6A00FF0E026E7F0E036E97D00C6A07BE0C2A28
:100B7A000D6A0B6A0A6A096A086A035002100110B0
:100B8A000010D8B484D0035007180E6E0EBE0D1E86
:100B9A0007AE0BD0041E051E061E071E042AD8B473
:100BAA00052AD8B4062AD8B4072A03AE0BD0001EE9
:100BBA00011E021E031E002AD8B4012AD8B4022A32
:100BCA00D8B4032A035007100E6E0EBE1CD019DECD
:100BDA000CBE36D00DAE5BD0001E011E021E031ED7
:100BEA00002AD8B4012AD8B4022AD8B4032A081E83
:100BFA00091E0A1E0B1E082AD8B4092AD8B40A2AC2
:100C0A00D8B40B2A44D007AE15D003BE0DD003507A
:100C1A000B6E02500A6E0150096E0050086E036A8C
:100C2A00026A016A006AD6D7036A026A016A006A1E
:100C3A00002A000C031E021E011E001E0C8EC7D7BE
:100C4A00082AD8B4092AD8B40A2AD8B40B2A0450D4
:100C5A00085CD8A4BFD70550095CD8A4BBD70650F6
:100C6A000A5CD8A4B7D707500B5CD8A4B3D70B6AD1
:100C7A000A6A096A086A002AD8B4012AD8B4022A78
:100C8A00D8B4032A03AEA6D70E6A0E88FF0C0E6AE2
:0A0C9A000CA001D0AADD000F12002B
:0E0CA400570E0D6E0D2EFED700000000120040
:100CB2000BC817F60CC818F60DC819F6020E080173
:100CC2000B25F66E000E0C21F76E000E0D21F86E4C
:100CD2000900F5CF04F0030E0B25F66E000E0C2171
:100CE200F76E000E0D21F86E0900F5CF03F003C078
:100CF20001F0006A0450002406010D6F000E01206D
:100D02000E6F040E08010B25F66E000E0C21F76E15
:100D1200000E0D21F86E0900F5CF04F0050E0B252B
:100D2200F66E000E0C21F76E000E0D21F86E090012
:100D3200F5CF03F003C001F0006A0450002405015E
:100D4200FD6F000E0120FE6F060E08010B25F66EE8
:100D5200000E0C21F76E000E0D21F86E0900F5CF82
:100D6200E8F5000E0501E96F0EC80FF60FC810F680
:100D720010C8F8F5010E01014A6F0201896B1200D9
:100D8200086A096A100E0C6E0134083609360450DE
:100D9200085E0550D8A0053C095ED8B007D00450C3
:100DA20008260550D8B0053C0926D89000360136F1
:060DB2000C2EEAD712002E
:100DB8000B6A0A6A096A00500402F4CF09F0F3CFFB
:100DC80008F001500502F4CF0BF0F3CF0AF0005001
:100DD8000502F3500926F4500A22E86A0B22015052
:100DE8000402F3500926F4500A22E86A0B2208C0CC
:100DF80000F009C001F00AC002F00BC003F01200B5
:100E0800800E08010C19006E800E005C02E1000ED5
:100E18000B5D0BE30201815108010C5D04E1020145
:100E2800805108010B5D01E201D055D0800E0E19EA
:100E3800006E800E005C02E1000E0D5D0BE3020106
:100E48007F5108010E5D04E102017E5108010D5D2C
:100E580001E201D040D08C9401DE00521BE007C6AD
:100E6800E1FF08C6E2FF0BC8E6FF0CC8E6FF0DC8A5
:100E7800E6FF0EC8E6FF0BC8E6FF0CC8E6FF0DC884
:100E8800E6FF0EC8E6FF05C600F006C601F096ECC0
:100E980000F012D003C6E1FF04C6E2FF0BC8E6FF6C
:100EA8000CC8E6FF0DC8E6FF0EC8E6FF01C600F055
:100EB80002C601F096EC00F0FBC5E1FFFCC5E2FFBD
:100EC8000FC8E6FF10C8E6FFF9C500F0FAC501F043
:080ED80096EC00F08C8412007E
:100EE0000BC801F00132019E0132019E0132019EC8
:100EF00001C00BF80B0E006E01C004F0000E056E71
:100F0000005005E0043604900536FF0FFAD70CC8F0
:100F100003F00332039E0332039E03C00CF8050E58
:100F2000026E03C000F0000E016E025005E00036B4
:100F300000900136FF0FFAD700500410026E0550E2
:100F40000110036E0DC800F00032009E0032009EBA
:100F50000032009E00C00DF8000E016E025000121B
:060F600003500112120013
:100F6600EA0E0801176F050E186F000E006E10517D
:100F7600005C02E10F51000844E2E6C5E1FFE7C567
:100F8600E2FF0BC8E6FF0CC8E6FF0DC8E6FF0EC879
:100F9600E6FF0FC8E6FF10C8E6FF130EE66E080E62
:100FA600E66EE4C500F0E5C501F096EC00F000C081
:100FB60015F801C016F80801116B126B1451125D79
:100FC60002E11351115D11E215C8E9FF16C8EAFFE7
:100FD60017C8E1FF18C8E2FFEECFE6FF174B182B44
:100FE600154B162B114B122BE9D713510F5F1451CA
:100FF600105B13510B2714510C23000E0D230E23E7
:04100600B4D7120049
:10100A00F2C7E9FFF3C7EAFFEE500701F41905E159
:10101A00F2C700F0F3C701F010D0F2C700F0F3C72F
:10102A0001F0F24BF32B00C0E9FF01C0EAFFEECF5B
:0C103A0000F00052E5E1006A016A1200BB
:10104600F6C700F00701F607005228E0F2C7E9FFED
:10105600F3C7EAFFEE50000A0CE0F2C7E9FFF3C758
:10106600EAFFF4C7D9FFF5C7DAFFEE50DE1801E153
:101076000FD0F2C7E9FFF3C7EAFFF4C7D9FFF5C7F8
:10108600DAFFDE50EE5C006E016A000E015A08D0EF
:101096000701F24BF32BF44BF52BD2D7006A016A0A
:0210A600120036
:1010A800F2C702F0F3C703F002C000F003C001F07A
:1010B800024A032A00C0E9FF01C0EAFFEE5201E03C
:1010C800F3D70701F251025C006EF3510358016E29
:0A10D800010E005E000E015A120026
:1010E200800E0701F519006E800EF319005C02E113
:1010F200F251F45D0CE2F2C7F8F7F3C7F9F7F4C75F
:10110200F2F7F5C7F3F7F8C7F4F7F9C7F5F7800E6A
:10111200F319006E800E005C02E1000EF25D03E244
:10112200F26BF36B0BD0020181510701F35D04E115
:10113200020180510701F25D01E3EDD0800EF51945
:10114200006E800E005C02E1000EF45D01E2E3D06D
:10115200020181510701F55D04E10201805107019D
:10116200F45D0AE3010E0201805D0701F46F000ED7
:10117200020181590701F56F010EFA6FFA5102015E
:10118200865DD8A0C8D0FAC7FBF7000E0701FC6F36
:10119200010EFB15016EFCC702F0000E0216000ED6
:1011A200021802E1000E011806E1FB510008FB6F74
:1011B200FC51000EFC57FBC700F0FCC701F00132E6
:1011C2000032019E01BC018E00C0FBF701C0FCF79A
:1011D2000050F625026E0150F721036E800E0318AF
:1011E200006E800E005C02E1000E025C0EE3FB5119
:1011F200F625016EFC51F721026E02017F51025C5D
:1012020002E17E51015C01E201D082D006011A5155
:10121200000A62E18C9425DC005226E00701FB51B2
:10122200F625026EFC51F721036E02C000F003C0E6
:1012320001F007C6E1FF08C6E2FFF2C7E6FFF3C707
:10124200E6FF02C0E6FF03C0E6FFF4C7E6FFF5C70C
:10125200E6FF00C0E6FF01C0E6FF05C600F006C6D5
:1012620001F096EC00F019D00701FB51F625006E53
:10127200FC51F721016E03C6E1FF04C6E2FFF2C78B
:10128200E6FFF3C7E6FF00C0E6FF01C0E6FF01C6C6
:1012920000F002C601F096EC00F0F2C7F8F7F3C7CF
:1012A200F9F70701F951F55D02E1F851F45D12E336
:1012B200FBC5E1FFFCC5E2FF87C2E6FF88C2E6FF8D
:1012C200F9C500F0FAC501F096EC00F00701F84B01
:1012D200F92BE7D78C841CD0F2C7F8F7F3C7F9F7DC
:1012E2000701F951F55D02E1F851F45D11E3F8C728
:1012F2000BF8F9C70CF8F6C70DF8F7C70EF887C256
:101302000FF888C210F87FDD0701F84BF92BE8D7F8
:081312000701FA2B33D712008A
:10131A000701FC6BFD6BFE6BFF6B01014A51000A72
:10132A000EE11A0E08010B6F790E0C6F000E0D6F8D
:10133A000E6B0F6B106BB8DC010E01014A6F0601D0
:10134A000E510701F35D04E106010D510701F25D3B
:10135A0001E237D1F3510501FE5D04E10701F251C3
:10136A000501FD5D01E22DD106010D510701F25D76
:10137A00016E06010E510701F359026E01C003F016
:10138A0002C004F003360390043603360390043691
:10139A00080E06011725006E000E1821016E000EB8
:1013AA001921026E03500024086E04500120096EB0
:1013BA00000E02200A6E08C0F6FF09C0F7FF0AC035
:1013CA00F8FF0900F5CFFCF7010E0824F66E000EAF
:1013DA000920F76E000E0A20F86E0900F5CF00F01A
:1013EA0000C004F0000E056E066E076E020E082499
:1013FA00F66E000E0920F76E000E0A20F86E09003C
:10140A00F5CF03F003C001F0006A000E026E036E0E
:10141A0000500426015005220250062203500722DA
:10142A00030E0824F66E000E0920F76E000E0A203D
:10143A00F86E0900F5CF03F0006A016A045000262D
:10144A000550012206500222075003221751002498
:10145A000701F96F0601185101200701FA6F060109
:10146A00195102200701FB6F0501F851000A54E1E6
:10147A00F6C5F6F7F7C5F7F70701F56B000E006E2C
:10148A000501E951005C03E1E8510701F55D39E224
:10149A000701F4C5FDF7F5C5FEF7F86BF46BFC51CF
:1014AA00F45D2BE2F851000A10E1F9C7F6FFFAC71A
:1014BA00F7FFFBC7F8FF0900F5CFFFF7010EF92781
:1014CA00000EFA23FB23010EF86FF851FF15006E88
:1014DA000DE0FDC70BF8FEC70CF8F6C70DF8F7C705
:1014EA000EF80FC60FF810C610F889DC0701FD4B7D
:1014FA00FE2BF837F891F42BD2D7F64BF72BF52BB6
:10150A00BDD70701010EFD250501F46F000E070185
:10151A00FE210501F56F55D0F4C5F6F7F5C5F7F7C5
:10152A000701F56B000E006E0501E951005C03E14D
:10153A00E8510701F55D3BE20701F6C5FDF7F7C57E
:10154A00FEF7F86BF46BFC51F45D2DE2F851000ADA
:10155A0010E1F9C7F6FFFAC7F7FFFBC7F8FF090062
:10156A00F5CFFFF7010EF927000EFA23FB23010E30
:10157A00F86FF851FF15006E0DE0F6C70BF8F7C7C4
:10158A000CF8FDC70DF8FEC70EF80FC60FF810C607
:10159A0010F835DC010E0701FD5F000EFE5BF8371F
:1015AA00F891F42BD0D7F64BF72BF52BBBD70701C5
:1015BA00010EFD5D0501F66F000E0701FE590501DA
:0415CA00F76F1200A5
:1015CE000701FF6B0801096B0A6B006B06010E51D8
:1015DE000701F35D04E106010D510701F25D01E221
:1015EE002DD2F3510501FE5D04E10701F251050113
:1015FE00FD5D01E223D206010D510701F25D036E7E
:10160E0006010E510701F359046E03C000F004C029
:10161E0001F0003600900136003600900136080EBB
:10162E000601092508010B6F000E06010A210801AB
:10163E000C6F000E06010B2108010D6F000E060146
:10164E000C2108010E6F00500B2701500C23000EC9
:10165E000D230E23040E0F6F000E106F7DDCEA0EAD
:10166E00076F050E086F07C8E9FF08C8EAFFEECF3F
:10167E0008F008C0FFF7010E0725E96E000E0821DD
:10168E00EA6EEECF04F0000E056E066E076E020EC9
:10169E000725E96E000E0821EA6EEECF03F003C0B7
:1016AE0001F0006A000E026E036E00500426015017
:1016BE0005220250062203500722030E0725E96E6B
:1016CE00000E0821EA6EEECF03F0006A016A0450A4
:1016DE000026055001220650022207500322005018
:1016EE00060109250701F96F015006010A210701BC
:1016FE00FA6F025006010B210701FB6F0350060122
:10170E000C210701FC6F08C000F00032009E003271
:10171E00009E0032009E000E016EE8C504F0E9C581
:10172E0005F0DCEC06F000C001F801C002F8070E6F
:10173E00FF15006E08E00501E851080101270501BB
:10174E00E9510801022301C805F802C806F8E6C5EA
:10175E00E1FFE7C5E2FFF9C7E6FFFAC7E6FFFBC701
:10176E00E6FFFCC7E6FF01C8E6FF02C8E6FFFD0E76
:10177E00E66E070EE66EE4C500F0E5C501F096ECE8
:10178E0000F000C007F801C008F80701FD51F92765
:10179E00FE51FA23000EFB23FC23FD510801015FCD
:1017AE000701FE510801025B036B046B0501F85142
:1017BE00000AD8A4A1D0F6C5F6F7F7C5F7F70701CA
:1017CE00F56B000E006E0501E951005C03E1E85176
:1017DE000701F55DD8B085D00701F4C509F8F5C548
:1017EE000AF8F86BF46BFF51F45DD8B076D0F8516F
:1017FE00000A58E10801034B042B06510701FE5D58
:10180E0004E1080105510701FD5D40E208010451A4
:10181E000701FE5D04E1080103510701FD5D36E29B
:10182E00010E0801036F000E046FE6C5E1FFE7C568
:10183E00E2FFF9C7E6FFFAC7E6FFFBC7E6FFFCC704
:10184E00E6FF01C8E6FF02C8E6FFFD0EE66E070ED4
:10185E00E66EE4C500F0E5C501F096EC00F000C0C0
:10186E0007F801C008F801C805F802C806F8070114
:10187E00FD51F927FE51FA23000EFB23FC23FD51E7
:10188E000801015F0701FE510801025B080107C84C
:10189E00E9FF08C8EAFFEECF00F8074B082B010E50
:1018AE000701F86FF85108010015006E0EE009C827
:1018BE000BF80AC80CF8F6C70DF8F7C70EF80FC6E6
:1018CE000FF810C610F804EC07F00801094B0A2BAC
:1018DE000701F837F891F42B86D7F64BF72BF52B3B
:1018EE0070D7010E080109250501F46F000E0801DD
:1018FE000A210501F56FA2D0F4C5F6F7F5C5F7F785
:10190E000701F56B000E006E0501E951005C03E165
:10191E00E8510701F55DD8B087D00701F6C509F883
:10192E00F7C50AF8F86BF46BFF51F45DD8B078D0B8
:10193E00F851000A58E10801034B042B0651070128
:10194E00FE5D04E1080105510701FD5D40E208015D
:10195E0004510701FE5D04E1080103510701FD5D1D
:10196E0036E2010E0801036F000E046FE6C5E1FFBB
:10197E00E7C5E2FFF9C7E6FFFAC7E6FFFBC7E6FFDA
:10198E00FCC7E6FF01C8E6FF02C8E6FFFD0EE66EE5
:10199E00070EE66EE4C500F0E5C501F096EC00F02A
:1019AE0000C007F801C008F801C805F802C806F81B
:1019BE000701FD51F927FE51FA23000EFB23FC23EC
:1019CE00FD510801015F0701FE510801025B08018C
:1019DE0007C8E9FF08C8EAFFEECF00F8074B082B4F
:1019EE00010E0701F86FF85108010015006E0EE0A8
:1019FE00F6C70BF8F7C70CF809C80DF80AC80EF8A9
:101A0E000FC60FF810C610F804EC07F0010E08010F
:101A1E00095F000E0A5B0701F837F891F42B84D7A3
:101A2E00F64BF72BF52B6ED7010E0801095D05015C
:0E1A3E00F66F000E08010A590501F76F12003D
:101A4C000701F66B050EF65D0AE2F651F425E16E20
:101A5C00000EF521E26E200EE66EF62BF3D7F65152
:101A6C00F425E16E000EF521E26EE66AF607F651FA
:101A7C00F425F76F000EF521F86F0A0E046E000EB8
:101A8C00056EF2C700F0F3C701F0C1EC06F008C018
:101A9C0000F009C001F0300E0026F7C7E1FFF8C7CF
:101AAC00E2FF00C0E6FF0A0E046E000E056EF2C7E0
:101ABC0000F0F3C701F0C1EC06F000C0F2F701C072
:101ACC00F3F7000E011802E1000E001801E102D03C
:061ADC00F607CDD7120051
:101AE200C30EC216F2C700F0003600900036009016
:101AF2000050C21252EC06F0C282C2A201D0FDD73F
:101B0200C4CF01F0006AC3500012000E011212008D
:101B1200F2C7F4F5F3C7F5F5F4C7F6F5F5C7F7F52F
:021B22001200AF
:101B2400000E0701F71902E1000EF61905E1F2C7EC
:101B340000F0F3C701F0A2D0F751F91902E1F8510E
:101B4400F61905E1F4C700F0F5C701F097D0F2C724
:101B54000BF8F3C70CF8FA0E08010D6F070E0E6FA1
:101B6400FD0E0F6F070E106F000E116F080E126F2F
:101B740035EC05F0F4C70BF8F5C70CF8FB0E0801BB
:101B84000D6F070E0E6FFE0E0F6F070E106F010E16
:101B9400116F080E126F35EC05F0F6C704F0F7C7A5
:101BA40005F0000E066E076EFBC700F0000E016E16
:101BB4000701FA51005E000E015A000E01BEFF0E2D
:101BC400026E036E7CEC05F0F8C704F0F9C705F06B
:101BD400000E066E076EA5EC05F000500701FA250D
:101BE400FC6FF6C704F0F7C705F0000E066E076E2B
:101BF400FEC700F0000E016EFD51005E000E015A9A
:101C0400000E01BEFF0E026E036E7CEC05F0F8C7F9
:101C140004F0F9C705F0000E066E076EA5EC05F09A
:101C240000500701FD25FF6FF6C704F0F7C705F064
:101C3400000E066E076E01C800F0000E016E08016A
:101C44000051005E000E015A000E01BEFF0E026E2E
:101C5400036E7CEC05F0F8C704F0F9C705F0000E3C
:101C6400066E076EA5EC05F00050080100250D6F07
:0E1C7400FCC70BF8FFC70CF870EC07F012006D
:0E1C8200F2C787F2F3C788F2F4C786F21200A9
:101C9000800E0701F519006E800EF319005C02E159
:101CA000F251F45D0CE2F2C7F8F7F3C7F9F7F4C7A5
:101CB000F2F7F5C7F3F7F8C7F4F7F9C7F5F7800EB1
:101CC000F319006E800E005C02E1000EF25D03E28B
:101CD000F26BF36B0BD002017F510701F35D04E15E
:101CE00002017E510701F25D01E38CD0800EF519EF
:101CF000006E800E005C02E1000EF45D01E282D015
:101D000002017F510701F55D04E102017E510701E7
:101D1000F45D0AE3010E02017E5D0701F46F000E1F
:101D200002017F590701F56F010EFA6FFA510201A6
:101D3000865D68E3FAC7FBF7000E0701FC6F010E32
:101D4000FB15016EFCC702F0000E0216000E021811
:101D500002E1000E011806E1FB510008FB6FFC5187
:101D6000000EFC57FBC700F0FCC701F00132003247
:101D7000019E01BC018E00C0FBF701C0FCF70050C2
:101D8000F625026E0150F721036E800E0318006ED7
:101D9000800E005C02E1000E025C0EE3FB51F625B2
:101DA000016EFC51F721026E02018151025C02E1D9
:101DB0008051015C01E201D022D0F2C7F8F7F3C7ED
:101DC000F9F70701F951F55D02E1F851F45D17E308
:101DD000FB51F62508010B6F0701FC51F7210801A3
:101DE0000C6FF8C70DF8F9C70EF887C20FF888C254
:101DF00010F804EC07F00701F84BF92BE2D70701C4
:061E0000FA2B94D712003A
:101E060086C200F00032009E00500701DF5D016EC1
:101E1600000EE059026E01C0EEF702C0EFF7800E29
:101E26000218006E800E005C02E1000E015C03E207
:101E3600EE6BEF6B14D0020181510701EF5D04E1F7
:101E4600020180510701EE5D0AE3010E0201805D89
:101E56000701EE6F000E020181590701EF6F0201C3
:101E66008605036E046A000E045A03C000F004C01F
:101E760001F001320032019E01BC018E00500701C3
:101E8600E325026E0150E421036E02C0F0F703C0A1
:101E9600F1F7800E0318006E800E005C02E1000E62
:101EA600025C03E2F06BF16B14D002018151070171
:101EB600F15D04E1020180510701F05D0AE3010EC4
:101EC6000201805D0701F06F000E020181590701D2
:101ED600F16F0201865336E0EEC7F2F7EFC7F3F76C
:101EE600F0C7F4F7F1C7F5F7E1C7F6F7E2C7F7F77A
:101EF60071EC08F0EEC7F2F7EFC7F3F7F0C7F4F7A7
:101F0600F1C7F5F7E5C7F6F7E6C7F7F771EC08F09E
:101F1600E1C7F2F7E2C7F3F7E5C7F4F7E6C7F5F767
:101F2600DFC7F6F7E0C7F7F7B0DEE1C7F2F7E2C7BB
:101F3600F3F7E5C7F4F7E6C7F5F7E3C7F6F7E4C73F
:101F4600F7F7A3DE06011D53D8B4DFD087C2EBF73F
:101F560088C2ECF786C2EDF702018651010F036EC7
:101F6600046A000E042203C000F004C001F001322E
:101F76000032019E01BC018E00500701DF2701508F
:101F8600E0230050E1270150E223020E02018625DC
:101F9600036E046A000E042203C000F004C001F0C0
:101FA60001320032019E01BC018E00500701E35F41
:101FB6000150E45B0050E55F0150E65B060100530B
:101FC600D8B479D00501FF51000A3BE1E1C7E9F732
:101FD600E2C7EAF70701EA51E65D02E1E951E55D8C
:101FE6002FE311C6F2F712C6F3F715C6F4F716C6B5
:101FF600F5F7E151E95DF66FE251EA59F76FE15104
:10200600E55DF86FE251E659F96F89DD00C0F2F738
:1020160001C0F3F7010E0701F46F30DEDFC7F2F7F8
:10202600E0C7F3F7E3C7F4F7E4C7F5F7E9C7F6F750
:10203600EAC7F7F771EC08F00701E94BEA2BCAD7B4
:1020460039D0DFC7E7F7E0C7E8F70701E851E45DF5
:1020560002E1E751E35D2EE311C6F2F712C6F3F78C
:1020660015C6F4F716C6F5F7DF51E75DF66FE051D2
:10207600E859F76FDF51E35DF86FE051E459F96F06
:102086004EDD00C0F2F701C0F3F7010E0701F46F51
:10209600F5DDE1C7F2F7E2C7F3F7E5C7F4F7E6C700
:1020A600F5F7E7C7F6F7E8C7F7F7EFDD0701E74B00
:1020B600E82BCBD724D007011BC6F2F71CC6F3F7D3
:1020C600010EF46FDBDDE1C7E9F7E2C7EAF7EA5193
:1020D600E65D02E1E951E55D12E3DFC7F2F7E0C72D
:1020E600F3F7E3C7F4F7E4C7F5F7E9C7F6F7EAC786
:1020F600F7F771EC08F00701E94BEA2BE8D7EBC7D5
:0C21060087F2ECC788F2EDC786F21200E9
:10211200000E0701E01902E1000EDF1937E0DFC708
:10212200E9FFE0C7EAFFEE5231E0E1C7F2F7E2C7AA
:10213200F3F754EC08F000C0F6F7DFC7F2F7E0C798
:10214200F3F7E1C7F4F7E2C7F5F723EC08F0000E66
:10215200011802E1000E001805E1DFC700F0E0C738
:1021620001F016D0010E0701DF25F26F000EE0210B
:10217200F36FE1C7E9FFE2C7EAFFEECFF4F705EC40
:1021820008F000C0DFF701C0E0F7C2D7006A016AB9
:02219200120039
:102194000701E56BE66BDFC7E7F7E0C7E8F7800EFA
:1021A400E019006E800E005C02E1000EDF5D0BE2C0
:1021B400010EE56F000EE66FDF510008E76FE0C720
:1021C400E8F7000EE857E7C7F2F7E8C7F3F7E1C707
:1021D400F4F7E2C7F5F738DC060EE36F000EE46FA0
:1021E400000E006EE451005C02E1E351000819E2C4
:1021F400E351E125E16EE451E221E26E010EE35D7B
:10220400006E000EE459016E0050E125E96E0150A4
:10221400E221EA6EEECFE6FF010EE35F000EE45B1F
:10222400DFD7E1C7E1FFE2C7E2FF200EE66EE5512A
:10223400E6111AE0E36BE46BE351E125E96EE45146
:10224400E221EA6EEE50200A03E1E34BE42BF4D7DB
:10225400010EE35F000EE45BE351E125E16EE4511E
:0A226400E221E26E2D0EE66E12007C
:10226E00DFC702F0E0C703F0E2C700F0E3C701F0FA
:10227E00010E0701E25F000EE35B0050011009E062
:10228E0002C0E1FF03C0E2FFE1C7E6FF024A032AF4
:0C229E00EBD7DFC700F0E0C701F0120032
:1022AA003D0E0B6EE10E0C6E3F0E0D6E0D2EFED71F
:0E22BA000C2EFCD70B2EFAD7000000001200ED
:1022C800020181510701E25D04E102018051070129
:1022D800E15D01E347D002017F510701E45D04E1BC
:1022E80002017E510701E35D01E33CD0E56BE66B3B
:1022F800E1C7F2F7E2C7F3F7E3C7F4F7E4C7F5F786
:1023080004DCE551DF25E96EE651E021EA6EEE5284
:1023180029E00201895313E00701E551DF25E96E41
:10232800E651E021EA6EEECFF2F7000EF36F000EF1
:10233800F36FE7EC0AF00701E54BE62B12D0070133
:10234800E551DF25E96EE651E021EA6EEECFF2F7BE
:10235800000EF36F000EF36F8DEC09F00701E54BEB
:06236800E62BCFD71200A6
:10236E000701E26BDFC7E9FFE0C7EAFFEECFE1F757
:10237E00E151000A0FE0E1C72DF879EC00F00701FA
:10238E00E22BE251DF25E96E000EE021EA6EEECF80
:06239E00E1F7EED712008A
:0C23A4009EC7DFF79FC7E0F7E0DF1200E4
:1023B0009D9AA38AF28EF28CAC92AC940F0E070118
:1023C000DF6F000EE06F320EE16F000EE26F310E34
:1023D000E36F010EE46F460EE56F000EE66F13DD4E
:1023E000010E0701DF6F010EE06F140EE16F000EAA
:1023F000E26F370EE36F000EE46F66DF0201AE514D
:10240000000A01E1FBD7A39A9D8AF29EF29C0F0E6F
:102410000701DF6F000EE06F320EE16F000EE26F1A
:10242000310EE36F010EE46F460EE56F000EE66FAE
:10243000EADC2E0E0701DF6F010EE06F140EE16F74
:10244000000EE26F370EE36F000EE46F3DDF020116
:10245000AE6BB10E0701DF6F020EE06F3A0EE16F57
:10246000010EE26F56DE00C0ACF201C0ADF2000E0C
:10247000011802E1000E0018D8B4E8D0070E0201DE
:10248000AC25E96E000EAD21EA6EEE502C0AD8B4F0
:10249000DDD00A0EAC25E96E000EAD21EA6E300EDD
:1024A000EE5C006E016A000E015A640E046E000EAE
:1024B000056EDCEC06F000C09EF701C09FF70C0E25
:1024C000AC25E96E000EAD21EA6E300EEE5C006EBA
:1024D000016A000E015A0A0E046E000E056EDCEC55
:1024E00006F0005007019E250201AF6F0150070161
:1024F0009F210201B06F0D0EAC25E96E000EAD21DB
:10250000EA6E300EEE5C006E016A000E015A005059
:10251000AF270150B023170EAC25E96E000EAD2198
:10252000EA6E300EEE5C006E016A000E015A640E17
:10253000046E000E056EDCEC06F000C09EF701C0D4
:102540009FF7190EAC25E96E000EAD21EA6E300E34
:10255000EE5C006E016A000E015A0A0E046E000E57
:10256000056EDCEC06F0005007019E250201AA6F03
:10257000015007019F210201AB6F1A0EAC25E96ED5
:10258000000EAD21EA6E300EEE5C006E016A000EA8
:10259000015A0050AA270150AB23AFC2DFF7B0C2E7
:1025A000E0F7A30E0701E16F020EE26FF3DDAAC2AE
:1025B000DFF7ABC2E0F79C0EE16F020EE26FEADDDF
:1025C0000F0EDF6F000EE06F320EE16F000EE26F54
:1025D000310EE36F010EE46F460EE56F000EE66FFD
:1025E00012DC220E0701DF6F010EE06F140EE16FA7
:1025F000000EE26F370EE36F000EE46F65DEA30E90
:10260000DF6F020EE06F500EE16F000EE26F370ECB
:10261000E36F000EE46F58DE200EDF6F010EE06FF7
:102620006D0EE16F000EE26F370EE36F000EE46F88
:102630004BDE9C0EDF6F020EE06F6E0EE16F000E40
:10264000E26F370EE36F000EE46F3EDE2EDEF28E99
:04265000F28C1200F6
:1026540002019B53D8B49FD1F29E9B6B010E0101E2
:10266400B36FB40E0701DF6F010EE06F620EE16F0E
:10267400000EE26F4CDD0050011024E00F0E070144
:10268400DF6F000EE06F320EE16F000EE26F310E6D
:10269400E36F010EE46F460EE56F000EE66F03EC88
:1026A4000FF0580E0701DF6F000EE06F140EE16F9C
:1026B400000EE26F370EE36F000EE46F03DEF3DD0E
:1026C4000101B36BB40E0701DF6F010EE06F2C0E36
:1026D400E16F000EE26F1BDD0050011023E00F0ECE
:1026E4000701DF6F000EE06F320EE16F000EE26F44
:1026F400310EE36F010EE46F460EE56F000EE66FD8
:1027040003EC0FF01F0E0701DF6F000EE06F140ED5
:10271400E16F000EE26F370EE36F000EE46FD2DD5F
:102724000101B36BB40E0701DF6F010EE06F190EE8
:10273400E16F000EE26FEBDC0050011026E0010EA9
:10274400576E0F0E0701DF6F000EE06F320EE16F60
:10275400000EE26F310EE36F010EE46F460EE56F7B
:10276400000EE66F03EC0FF03E0E0701DF6F000E64
:10277400E06F140EE16F000EE26F370EE36F000E90
:10278400E46FA0DD0101B36B8EDDB40E0701DF6FD2
:10279400010EE06F370EE16F000EE26FB8DC0050FF
:1027A4000110D8B4C1D0300E0101BD5D006E016AC4
:1027B400000E015A640E046E000E056EDCEC06F089
:1027C40000C09EF701C09FF7300EBE5D006E016A27
:1027D400000E015A0A0E046E000E056EDCEC06F0C3
:1027E400005007019E250101B16F015007019F218F
:1027F4000101B26F300EBF5D006E016A000E015A16
:102804000050B1270150B223300EC35D006E016A3F
:10281400000E015A640E046E000E056EDCEC06F028
:1028240000C09EF701C09FF7300EC45D006E016AC0
:10283400000E015A0A0E046E000E056EDCEC06F062
:10284400005007019E2502017C6F015007019F2162
:1028540002017D6F300E0101C55D006E016A000E3C
:10286400015A005002017C2701507D23B1C1F2F7C7
:10287400B2C1F3F7910E0701F46F020EF56F26EC67
:102884000DF07CC2F2F77DC2F3F78A0EF46F020EEC
:10289400F56F26EC0DF00F0EDF6F000EE06F320EB9
:1028A400E16F000EE26F310EE36F010EE46F460E2E
:1028B400E56F000EE66F03EC0FF0670E0701DF6FA4
:1028C400000EE06F140EE16F000EE26F370EE36F3F
:1028D400000EE46FF7DC910EDF6F020EE06F500E16
:1028E400E16F000EE26F370EE36F000EE46FEADC77
:1028F400780EDF6F000EE06F6D0EE16F000EE26F79
:10290400370EE36F000EE46FDDDC8A0EDF6F020E1C
:10291400E06F6E0EE16F000EE26F370EE36F000E94
:10292400E46FD0DC0101B36B0101B35323E0020176
:10293400986B0F0E0701DF6F000EE06F320EE16F30
:10294400000EE26F310EE36F010EE46F460EE56F89
:10295400000EE66F03EC0FF0B40E0701DF6F010EFB
:10296400E06F140EE16F000EE26F370EE36F000E9E
:10297400E46FA8DC0201986B0001766B776BB40EF0
:102984000701DF6F010EE06FE16B640EE26F000E72
:08299400E36F6BDCF28E120010
:0C299C000D0E08012D6F79EC00F0120008
:1029A800A10E0701DD6F070EDE6FDDC703F0DEC77E
:1029B80004F0DD4BDE2B9EC700F09FC701F0A0C7D7
:1029C80002F0010E9E27000E9F23A02300C0F6FFF1
:1029D80001C0F7FF02C0F8FF0900F5CF00F003C0FF
:1029E800E1FF04C0E2FF00C0E6FF03C0E9FF04C046
:1029F800EAFFEE5201E0D9D7A10EDF6F070EE06FB4
:042A0800B2DC12002A
:102A0C0084C2E1FF85C2E2FF9EC7E6FF82C200F0EE
:0A2A1C0083C201F096EC00F01200F6
:102A2600100E0C6E940E0D6E0D2EFED70C2EFCD7CE
:042A3600000012008A
:0C2A3A0092809282959E8C9E95881200DE
:102A460001014A51000A0FE11A0E08010B6F790EB7
:102A56000C6F000E0D6F0E6B0F6B106B59EC06F0C2
:102A6600010E01014A6F06010E5107019F5D04E147
:102A760006010D5107019E5D03E2006A016A38D026
:102A86009F510501FE5D04E107019E510501FD5DB3
:102A960003E2006A016A2CD006010D5107019E5D12
:102AA600016E06010E5107019F59026E01C003F027
:102AB60002C004F00336039004360336039004364E
:102AC600080E06011725006E000E1821016E000E75
:102AD6001921026E03500024F66E04500120F76E91
:102AE600000E0220F86E0900F5CF00F0000E016E10
:022AF6001200CC
:102AF80006010E5107019F5D04E106010D51070112
:102B08009E5D03E2006A016A4ED09F510501FE5D99
:102B180004E107019E510501FD5D03E2006A016AB7
:102B280042D006010D5107019E5D036E06010E514C
:102B380007019F59046E03C000F004C001F000367D
:102B480000900136003600900136080E060109256E
:102B580008010B6F000E06010A2108010C6F000E18
:102B680006010B2108010D6F000E06010C2108015A
:102B78000E6F00500B2701500C23000E0D230E235F
:102B8800040E0F6F000E106FB3EC07F0EA0E07018A
:102B9800A06F050EA16FA0C7E9FFA1C7EAFFEECF9E
:082BA80000F0000E016E1200A6
:0E2BB00095889282959E8C9E9290898012004C
:0E2BBE00C70E0D6E0D2EFED700000000120097
:102BCC004E0E0C6EEB0E0D6E0D2EFED70C2EFCD792
:022BDC001200E5
:102BDE0086C2B5F787C2B6F788C2B7F7010E0201F3
:102BEE00866F1BC687F21CC688F20701A2519E5D36
:102BFE00AD6FA3519F59AE6FAD4BAE2BA2519E251B
:102C0E00AF6FA3519F21B06F010EAF5F000EB05B8F
:102C1E00A251A05DB16FA351A159B26FB14BB22BAE
:102C2E00A251A025B36FA351A121B46F010EB35FC2
:102C3E00000EB45BA56BA66BA76BA86BA96BAA6BFA
:102C4E009E51A05DAB6F9F51A159AC6FA2C7A7F764
:102C5E00A3C7A8F7A2C700F0A3C701F000360090E3
:102C6E00013600C0A5F701C0A6F700500308A56FF6
:102C7E0001C0A6F7000EA657010EA725016E000E85
:102C8E00A821026E800EAA19006E800E0218005C3A
:102C9E0002E10150A95DD8B0EBD206010053D8B4C1
:102CAE00E7D10501FF51000AD8A4F1D011C6F2F701
:102CBE0012C6F3F715C6F4F716C6F5F70701A751B6
:102CCE00A025F66FA851A121F76FB151F65FB25151
:102CDE00F75BB151B35DF86FB251B459F96F92EC25
:102CEE000DF000C0F2F701C0F3F7010E0701F46F0B
:102CFE0041EC0EF0A9519E25F26FAA519F21F36F60
:102D0E00A9519E5DF46FAA519F59F56FA751A02549
:102D1E00F66FA851A121F76F71EC08F011C6F2F70A
:102D2E0012C6F3F715C6F4F716C6F5F70701A75145
:102D3E00A05DF66FA851A159F76FB151F65FB25170
:102D4E00F75BB151B35DF86FB251B459F96F92ECB4
:102D5E000DF000C0F2F701C0F3F7010E0701F46F9A
:102D6E0041EC0EF0A9519E25F26FAA519F21F36FEF
:102D7E00A9519E5DF46FAA519F59F56FA751A05DA1
:102D8E00F66FA851A159F76F71EC08F011C6F2F762
:102D9E0012C6F3F715C6F4F716C6F5F70701A951D3
:102DAE00A025F66FAA51A121F76FB151F65FB2516E
:102DBE00F75BB151B35DF86FB251B459F96F92EC44
:102DCE000DF000C0F2F701C0F3F7010E0701F46F2A
:102DDE0041EC0EF0A751A025F26FA851A121F36F7F
:102DEE00AB51F25FAC51F35BA751A05DF46FA851EC
:102DFE00A159F56FAB51F45FAC51F55BA951A0250C
:102E0E00F66FAA51A121F76F71EC08F011C6F2F717
:102E1E0012C6F3F715C6F4F716C6F5F70701A95152
:102E2E00A05DF66FAA51A159F76FB151F65FB2517D
:102E3E00F75BB151B35DF86FB251B459F96F92ECC3
:102E4E000DF000C0F2F701C0F3F7010E0701F46FA9
:102E5E0041EC0EF0A751A025F26FA851A121F36FFE
:102E6E00AB51F25FAC51F35BA751A05DF46FA8516B
:102E7E00A159F56FAB51F45FAC51F55BA951A05D53
:102E8E00F66FAA51A159F76F71EC08F0F0D011C688
:102E9E00F2F712C6F3F715C6F4F716C6F5F70701E3
:102EAE00A9519E25F66FAA519F21F76FAD51F65F7E
:102EBE00AE51F75BAD51AF5DF86FAE51B059F96FD2
:102ECE0092EC0DF000C0F2F701C0F3F7010E07010E
:102EDE00F46F41EC0EF0A751A025F26FA851A1217D
:102EEE00F36FA751A05DF46FA851A159F56FA951C9
:102EFE009E25F66FAA519F21F76F48EC0EF011C672
:102F0E00F2F712C6F3F715C6F4F716C6F5F7070172
:102F1E00A9519E5DF66FAA519F59F76FAD51F65F9D
:102F2E00AE51F75BAD51AF5DF86FAE51B059F96F61
:102F3E0092EC0DF000C0F2F701C0F3F7010E07019D
:102F4E00F46F41EC0EF0A751A025F26FA851A1210C
:102F5E00F36FA751A05DF46FA851A159F56FA95158
:102F6E009E5DF66FAA519F59F76F48EC0EF011C691
:102F7E00F2F712C6F3F715C6F4F716C6F5F7070102
:102F8E00A751A025F66FA851A121F76FAB51F65F9F
:102F9E00AC51F75BAD51F65FAE51F75BAD51AF5D26
:102FAE00F86FAE51B059F96F92EC0DF000C0F2F718
:102FBE0001C0F3F7010E0701F46F41EC0EF0A951B9
:102FCE00A025F26FAA51A121F36FA951A05DF46F54
:102FDE00AA51A159F56FA751A025F66FA851A121AD
:102FEE00F76FAB51F65FAC51F75B48EC0EF011C6C4
:102FFE00F2F712C6F3F715C6F4F716C6F5F7070182
:10300E00A751A05DF66FA851A159F76FAB51F65FAE
:10301E00AC51F75BAD51F65FAE51F75BAD51AF5DA5
:10302E00F86FAE51B059F96F92EC0DF000C0F2F797
:10303E0001C0F3F7010E0701F46F41EC0EF0A95138
:10304E00A025F26FAA51A121F36FA951A05DF46FD3
:10305E00AA51A159F56FA751A05DF66FA851A159BC
:10306E00F76FAB51F65FAC51F75B48EC0EF0C4D086
:10307E000701A451000A5CE1A751A025F26FA851E7
:10308E00A121F36FA751A05DF46FA851A159F56F5F
:10309E00A9519E25F66FAA519F21F76F48EC0EF0AD
:1030AE000701A751A025F26FA851A121F36FA751D7
:1030BE00A05DF46FA851A159F56FA9519E5DF66FF1
:1030CE00AA519F59F76F48EC0EF00701A951A025A0
:1030DE00F26FAA51A121F36FA951A05DF46FAA510D
:1030EE00A159F56FA751A025F66FA851A121F76F31
:1030FE00AB51F65FAC51F75B48EC0EF00701A951EE
:10310E00A025F26FAA51A121F36FA951A05DF46F12
:10311E00AA51A159F56FA751A05DF66FA851A159FB
:10312E00F76FAB51F65FAC51F75B48EC0EF064D025
:10313E000701A9519E25F26FAA519F21F36FA95144
:10314E009E5DF46FAA519F59F56FA751A025F66F9A
:10315E00A851A121F76F71EC08F00701A9519E2526
:10316E00F26FAA519F21F36FA9519E5DF46FAA5180
:10317E009F59F56FA751A05DF66FA851A159F76F32
:10318E0071EC08F00701A751A025F26FA851A121FB
:10319E00F36FAB51F25FAC51F35BA751A05DF46FCF
:1031AE00A851A159F56FAB51F45FAC51F55BA95124
:1031BE00A025F66FAA51A121F76F71EC08F0070157
:1031CE00A751A025F26FA851A121F36FAB51F25F69
:1031DE00AC51F35BA751A05DF46FA851A159F56FE7
:1031EE00AB51F45FAC51F55BA951A05DF66FAA51DE
:1031FE00A159F76F71EC08F0800E0701A619006E49
:10320E00800E005C02E1000EA55D13E2A9C700F07E
:10321E00AAC701F000360090013600360090013644
:10322E00060E0026000E01220050A5270150A623EF
:10323E001CD0A751A95D036EA851AA59046E03C0F4
:10324E0000F004C001F00036009001360036009008
:10325E0001360A0E0026000E01220050A52701504D
:10326E00A623010EA75F000EA85BA94BAA2B04D5BF
:0E327E00B5C786F2B6C787F2B7C788F212004E
:0E328C00958E928095988C989292898212006D
:10329A00070E0B6E170E0C6E6A0E0D6E0D2EFED7F4
:0C32AA000C2EFCD70B2EFAD700001200EF
:1032B600A2C7F2F7A3C7F3F7A4C7F4F7A5C7F5F7B4
:1032C60089EC0DF007019F51A31902E1A2519E1945
:1032D6000FE1A0C7F2F7A1C7F3F7A4C7F4F7A5C794
:1032E600F5F79EC7F6F79FC7F7F748EC0EF0A3D1A0
:1032F6000701A151A51902E1A451A0190FE19EC72A
:10330600F2F79FC7F3F7A2C7F4F7A3C7F5F7A0C76D
:10331600F6F7A1C7F7F771EC08F08DD10701B06B8E
:10332600B16B9E51A25D016E9F51A359026E01C001
:10333600A6F702C0A7F7800E0218006E800E005C8A
:1033460002E1000E015C0BE2A6510008A66FA75130
:10335600000EA757010EB05F000EB15B02D0B04B56
:10336600B12BB26BB36BA051A45D016EA151A559EF
:10337600026E01C0A8F702C0A9F7800E0218006EFF
:10338600800E005C02E1000E015C0BE2A851000811
:10339600A86FA951000EA957010EB25F000EB35BCC
:1033A60002D0B24BB32BB46BB56B800EA719006E6F
:1033B600800EA919005C02E1A851A65D68E2B44B33
:1033C600B52BA6C7B6F7A7C7B7F7A8C7A6F7A9C765
:1033D600A7F7B6C7A8F7B7C7A9F79EC7B6F79FC797
:1033E600B7F7A0C79EF7A1C79FF7B6C7A0F7B7C79D
:1033F600A1F7B0C7B6F7B1C7B7F7B2C7B0F7B3C74B
:10340600B1F7B6C7B2F7B7C7B3F7010EB86FB85181
:103416000201865D3BE3B8C7B9F7000E0701BA6F34
:10342600010EB915016EBAC702F0000E0216000EA3
:10343600021802E1000E011806E1B9510008B96F41
:10344600BA51000EBA57B9C700F0BAC701F0013237
:103456000032019E01BC018E00C0B9F701C0BAF767
:103466000050A02508010B6F01500701A12108019A
:103476000C6F9EC70DF89FC70EF887C20FF888C25B
:1034860010F804EC07F00701B82BC1D742D00701AA
:10349600010EB86FB8510201865D3BE3B8C7B9F7B4
:1034A600000E0701BA6F010EB915016EBAC702F018
:1034B600000E0216000E021802E1000E011806E1C7
:1034C600B9510008B96FBA51000EBA57B9C700F022
:1034D600BAC701F001320032019E01BC018E00C064
:1034E600B9F701C0BAF79EC70BF89FC70CF8005092
:1034F600A02508010D6F01500701A12108010E6FDB
:1035060087C20FF888C210F804EC07F00701B82B41
:10351600C1D70701A6C7AEF7A7C7AFF7AE37AE91BB
:10352600AF37A8C700F0A9C701F0003600900136F2
:1035360000C0ACF701C0ADF7A651005CAA6FA75159
:103546000158AB6F0701010EA65F000EA75B800E48
:10355600A719006E800E005C02E1000EA65D6BE30B
:10356600800EAB19006E800E005C02E1000EAA5DB3
:1035760008E3B251A027B351A123AE51AA5FAF51C0
:10358600AB5BB0519E27B1519F23AC51AA27AD51D9
:10359600AB23010EB86FB8510201865D4BE3B8C785
:1035A600B9F7000E0701BA6F010EB915016EBAC759
:1035B60002F0000E0216000E021802E1000E0118BB
:1035C60006E1B9510008B96FBA51000EBA57BA33BD
:1035D600B933BA9FBABDBA8FB451B51114E0B95117
:1035E600A02508010B6F0701BA51A12108010C6F34
:1035F6009EC70DF89FC70EF887C20FF888C210F84D
:1036060004EC07F014D09EC70BF89FC70CF807010F
:10361600B951A02508010D6F0701BA51A121080172
:103626000E6F87C20FF888C210F804EC07F0070186
:08363600B82BB1D787D71200B1
:10363E00D8EC15F013EC15F0B3C59EF706EC15F0AB
:10364E0000C07EF701C07FF77EC700F07FC701F094
:02365E00120058
:10366000090E07019E6F8A0E9F6F000EA06FD4ECAB
:1036700014F0CEEC14F00F0E0701DF6F000EE06FB8
:10368000320EE16F000EE26F310EE36F010EE46F58
:10369000460EE56F000EE66F03EC0FF0820E070199
:1036A000DF6F000EE06F140EE16F000EE26F370E59
:1036B000E36F000EE46F64EC11F081BCC8D084A805
:1036C0002FD0400E9E6F8A0E9F6F000EA06FD4EC1D
:1036D00014F0CEEC14F0FF0E816E81920F0E0701F4
:1036E000DF6F000EE06F320EE16F000EE26F310E01
:1036F000E36F010EE46F460EE56F000EE66F03EC1C
:103700000FF07F0E0701DF6F000EE06F140EE16F08
:10371000000EE26F370EE36F000EE46F64EC11F001
:1037200084AA2FD0170E9E6F8A0E9F6F000EA06F77
:10373000D4EC14F0CEEC14F0FF0E816E81940F0ED9
:103740000701DF6F000EE06F320EE16F000EE26FD7
:10375000310EE36F010EE46F460EE56F000EE66F6B
:1037600003EC0FF07A0E0701DF6F000EE06F140E0E
:10377000E16F000EE26F370EE36F000EE46F64EC52
:1037800011F084A62FD0250E9E6F8A0E9F6F000E1B
:10379000A06FD4EC14F0CEEC14F0FF0E816E81908B
:1037A0000F0E0701DF6F000EE06F320EE16F000EAB
:1037B000E26F310EE36F010EE46F460EE56F000E0F
:1037C000E66F03EC0FF0A70E0701DF6F000EE06F4E
:1037D000140EE16F000EE26F370EE36F000EE46F20
:1037E00064EC11F084AC30D0FA0E9E6F890E9F6F9E
:1037F000000EA06FD4EC14F0CEEC14F0FF0E816E2E
:1038000081960F0E0701DF6F000EE06F320EE16F41
:10381000000EE26F310EE36F010EE46F460EE56FAE
:10382000000EE66F03EC0FF0A10E0701DF6F000E34
:10383000E06F140EE16F000EE26F370EE36F000EC3
:10384000E46F64EC11F002D0FF0E816E36D70F0EDC
:10385000DF6F000EE06F320EE16F000EE26F310E8F
:10386000E36F010EE46F460EE56F000EE66F03ECAA
:103870000FF08F0E0701DF6F000EE06F140EE16F87
:10388000000EE26F370EE36F000EE46F64EC11F090
:06389000FF0E816E120024
:10389600560E07019E6F8A0E9F6F000EA06FD4EC26
:1038A60014F0CEEC14F00F0E0701DF6F000EE06F80
:1038B600320EE16F000EE26F310EE36F010EE46F20
:1038C600460EE56F000EE66F03EC0FF0ED0E0701F6
:1038D600DF6F000EE06F140EE16F000EE26F370E21
:0C38E600E36F000EE46F64EC11F01200C0
:1038F2000701856B866B020181510701815D04E13D
:10390200020180510701805D01E358D002017F511D
:103912000701835D04E102017E510701825D01E33B
:103922004DD0456B466B436B446B80C713F681C722
:1039320014F680C7BCF581C7BDF582C7BAF583C747
:10394200BBF582C7B8F583C7B9F57EC700F07FC75C
:1039520001F07E4B7F2B00C0E9FF01C0EAFFEECFF2
:1039620000F000C084F7005221E0020189530FE009
:1039720084C79EF7000E07019F6F7CEC15F0004A8A
:10398200012A005007018527015086230ED0070126
:1039920084C79EF7000E9F6F23EC15F0004A012AA0
:1039A20000500701852701508623CFD785C745F7E9
:0E39B20086C746F7E8C543F7E9C544F712009B
:1039C00065DC13EC15F0C6C59EF706EC15F000C0DB
:1039D0007EF701C07FF77EC700F07FC701F01200BD
:1039E0007EC71DF67FC71BF680C71CF681C700F691
:1039F00082C7FFF583C711F684C712F685C715F68F
:063A000086C716F6120055
:063A060047C100F01200B0
:103A0C00E20E0201826F1A0E836FF20E846F070EA4
:0E3A1C00856FC26A070EC16EC18EC280120095
:103A2A008C9695968D8096908C849594999299947B
:103A3A00908290842DDC8C862BDC2ADC8C94C4C585
:103A4A00E1FFC5C5E2FF010EE66EC2C500F0C3C5BF
:103A5A0001F096EC00F0E6EC15F0C4C5E1FFC5C52F
:103A6A00E2FF280EE66EC2C500F0C3C501F096EC6F
:103A7A0000F0C4C5E1FFC5C5E2FFCF0EE66EC2C5C0
:103A8A0000F0C3C501F096EC00F0C0C5E1FFC1C566
:103A9A00E2FFE66ABEC500F0BFC501F096EC00F091
:103AAA00C0C5E1FFC1C5E2FF830EE66EBEC500F0E8
:103ABA00BFC501F096EC00F0C0C5E1FFC1C5E2FF49
:103ACA00300EE66EBEC500F0BFC501F096EC00F000
:103ADA00C4C5E1FFC5C5E2FFED0EE66EC2C500F042
:103AEA00C3C501F096EC00F0C0C5E1FFC1C5E2FF15
:103AFA00640EE66EBEC500F0BFC501F096EC00F09C
:103B0A00C0C5E1FFC1C5E2FF030EE66EBEC500F007
:103B1A00BFC501F096EC00F0C0C5E1FFC1C5E2FFE8
:103B2A00120EE66EBEC500F0BFC501F096EC00F0BD
:103B3A00C0C5E1FFC1C5E2FF810EE66EBEC500F059
:103B4A00BFC501F096EC00F0C4C5E1FFC5C5E2FFB0
:103B5A00E80EE66EC2C500F0C3C501F096EC00F0AF
:103B6A00C0C5E1FFC1C5E2FF850EE66EBEC500F025
:103B7A00BFC501F096EC00F0C0C5E1FFC1C5E2FF88
:103B8A00010EE66EBEC500F0BFC501F096EC00F06E
:103B9A00C0C5E1FFC1C5E2FF790EE66EBEC500F001
:103BAA00BFC501F096EC00F0C4C5E1FFC5C5E2FF50
:103BBA00CB0EE66EC2C500F0C3C501F096EC00F06C
:103BCA00C0C5E1FFC1C5E2FF390EE66EBEC500F011
:103BDA00BFC501F096EC00F0C0C5E1FFC1C5E2FF28
:103BEA002C0EE66EBEC500F0BFC501F096EC00F0E3
:103BFA00C0C5E1FFC1C5E2FFE66ABEC500F0BFC5A8
:103C0A0001F096EC00F0C0C5E1FFC1C5E2FF340E39
:103C1A00E66EBEC500F0BFC501F096EC00F0C0C567
:103C2A00E1FFC1C5E2FF020EE66EBEC500F0BFC5E8
:103C3A0001F096EC00F0C4C5E1FFC5C5E2FFF70E3E
:103C4A00E66EC2C500F0C3C501F096EC00F0C0C52F
:103C5A00E1FFC1C5E2FF200EE66EBEC500F0BFC59A
:103C6A0001F096EC00F0C4C5E1FFC5C5E2FFEA0E1B
:103C7A00E66EC2C500F0C3C501F096EC00F0C0C5FF
:103C8A00E1FFC1C5E2FFE66ABEC500F0BFC501F0AB
:103C9A0096EC00F0C0C5E1FFC1C5E2FFE66ABEC509
:103CAA0000F0BFC501F096EC00F0C4C5E1FFC5C540
:103CBA00E2FFC00EE66EC2C500F0C3C501F096EC85
:103CCA0000F0C0C5E1FFC1C5E2FF260EE66EBEC523
:103CDA0000F0BFC501F096EC00F0C4C5E1FFC5C510
:103CEA00E2FFC10EE66EC2C500F0C3C501F096EC54
:103CFA0000F0C0C5E1FFC1C5E2FF110EE66EBEC508
:103D0A0000F0BFC501F096EC00F0C4C5E1FFC5C5DF
:103D1A00E2FFC50EE66EC2C500F0C3C501F096EC1F
:103D2A0000F0C0C5E1FFC1C5E2FF350EE66EBEC5B3
:103D3A0000F0BFC501F096EC00F0C0C5E1FFC1C5B7
:103D4A00E2FF3E0EE66EBEC500F0BFC501F096EC7E
:103D5A0000F0C4C5E1FFC5C5E2FFC70EE66EC2C5E5
:103D6A0000F0C3C501F096EC00F0C0C5E1FFC1C583
:103D7A00E2FFBE0EE66EBEC500F0BFC501F096ECCE
:103D8A0000F0C4C5E1FFC5C5E2FF360EE66EC2C546
:103D9A0000F0C3C501F096EC00F0010144515A0A43
:103DAA001EE1A2EC00F000520DE0C0C5E1FFC1C562
:103DBA00E2FF880EE66EBEC500F0BFC501F096ECC4
:103DCA0000F00CD0C0C5E1FFC1C5E2FF480EE66EA7
:103DDA00BEC500F0BFC501F096EC00F01DD0A2EC04
:103DEA0000F000520DE0C0C5E1FFC1C5E2FFE80ED8
:103DFA00E66EBEC500F0BFC501F096EC00F00CD02F
:103E0A00C0C5E1FFC1C5E2FF280EE66EBEC500F0DF
:103E1A00BFC501F096EC00F0C4C5E1FFC5C5E2FFDD
:103E2A003A0EE66EC2C500F0C3C501F096EC00F08A
:103E3A00C0C5E1FFC1C5E2FF550EE66EBEC500F082
:103E4A00BFC501F096EC00F0C4C5E1FFC5C5E2FFAD
:103E5A00B10EE66EC2C500F0C3C501F096EC00F0E3
:103E6A00C0C5E1FFC1C5E2FFE66ABEC500F0BFC535
:103E7A0001F096EC00F0C0C5E1FFC1C5E2FF1B0EE0
:103E8A00E66EBEC500F0BFC501F096EC00F0C4C5F1
:103E9A00E1FFC5C5E2FFF20EE66EC2C500F0C3C57A
:103EAA0001F096EC00F0C0C5E1FFC1C5E2FF080EC3
:103EBA00E66EBEC500F0BFC501F096EC00F0C4C5C1
:103ECA00E1FFC5C5E2FF260EE66EC2C500F0C3C516
:103EDA0001F096EC00F0C0C5E1FFC1C5E2FF010E9A
:103EEA00E66EBEC500F0BFC501F096EC00F0C4C591
:103EFA00E1FFC5C5E2FFE00EE66EC2C500F0C3C52C
:103F0A0001F096EC00F0C0C5E1FFC1C5E2FF1F0E4B
:103F1A00E66EBEC500F0BFC501F096EC00F0C0C564
:103F2A00E1FFC1C5E2FF1A0EE66EBEC500F0BFC5CD
:103F3A0001F096EC00F0C0C5E1FFC1C5E2FF180E22
:103F4A00E66EBEC500F0BFC501F096EC00F0C0C534
:103F5A00E1FFC1C5E2FF0A0EE66EBEC500F0BFC5AD
:103F6A0001F096EC00F0C0C5E1FFC1C5E2FF0F0EFB
:103F7A00E66EBEC500F0BFC501F096EC00F0C0C504
:103F8A00E1FFC1C5E2FF060EE66EBEC500F0BFC581
:103F9A0001F096EC00F0C0C5E1FFC1C5E2FF450E95
:103FAA00E66EBEC500F0BFC501F096EC00F0C0C5D4
:103FBA00E1FFC1C5E2FF870EE66EBEC500F0BFC5D0
:103FCA0001F096EC00F0C0C5E1FFC1C5E2FF320E78
:103FDA00E66EBEC500F0BFC501F096EC00F0C0C5A4
:103FEA00E1FFC1C5E2FF0A0EE66EBEC500F0BFC51D
:103FFA0001F096EC00F0C0C5E1FFC1C5E2FF070E73
:10400A00E66EBEC500F0BFC501F096EC00F0C0C573
:10401A00E1FFC1C5E2FF020EE66EBEC500F0BFC5F4
:10402A0001F096EC00F0C0C5E1FFC1C5E2FF070E42
:10403A00E66EBEC500F0BFC501F096EC00F0C0C543
:10404A00E1FFC1C5E2FF050EE66EBEC500F0BFC5C1
:10405A0001F096EC00F0C0C5E1FFC1C5E2FFE66AD7
:10406A00BEC500F0BFC501F096EC00F0C4C5E1FF83
:10407A00C5C5E2FFE10EE66EC2C500F0C3C501F098
:10408A0096EC00F0C0C5E1FFC1C5E2FFE66ABEC515
:10409A0000F0BFC501F096EC00F0C0C5E1FFC1C554
:1040AA00E2FF250EE66EBEC500F0BFC501F096EC34
:1040BA0000F0C0C5E1FFC1C5E2FF270EE66EBEC52E
:1040CA0000F0BFC501F096EC00F0C0C5E1FFC1C524
:1040DA00E2FF050EE66EBEC500F0BFC501F096EC24
:1040EA0000F0C0C5E1FFC1C5E2FF100EE66EBEC515
:1040FA0000F0BFC501F096EC00F0C0C5E1FFC1C5F4
:10410A00E2FF090EE66EBEC500F0BFC501F096ECEF
:10411A0000F0C0C5E1FFC1C5E2FF3A0EE66EBEC5BA
:10412A0000F0BFC501F096EC00F0C0C5E1FFC1C5C3
:10413A00E2FF780EE66EBEC500F0BFC501F096EC50
:10414A0000F0C0C5E1FFC1C5E2FF4D0EE66EBEC577
:10415A0000F0BFC501F096EC00F0C0C5E1FFC1C593
:10416A00E2FF050EE66EBEC500F0BFC501F096EC93
:10417A0000F0C0C5E1FFC1C5E2FF180EE66EBEC57C
:10418A0000F0BFC501F096EC00F0C0C5E1FFC1C563
:10419A00E2FF0D0EE66EBEC500F0BFC501F096EC5B
:1041AA0000F0C0C5E1FFC1C5E2FF380EE66EBEC52C
:1041BA0000F0BFC501F096EC00F0C0C5E1FFC1C533
:1041CA00E2FF3A0EE66EBEC500F0BFC501F096ECFE
:1041DA0000F0C0C5E1FFC1C5E2FF1F0EE66EBEC515
:1041EA0000F0BFC501F096EC00F0C4C5E1FFC5C5FB
:1041FA00E2FF2A0EE66EC2C500F0C3C501F096ECD6
:10420A0000F0C0C5E1FFC1C5E2FFE66ABEC500F025
:10421A00BFC501F096EC00F0C0C5E1FFC1C5E2FFE1
:10422A00E66ABEC500F0BFC501F096EC00F0010ECB
:10423A000201805D036E000E8159046E04C000F015
:10424A00016AC0C5E1FFC1C5E2FF00C0E6FFBEC505
:10425A0000F0BFC501F096EC00F002018005006E87
:10426A00C0C5E1FFC1C5E2FF00C0E6FFBEC500F060
:10427A00BFC501F096EC00F0C4C5E1FFC5C5E2FF79
:10428A002B0EE66EC2C500F0C3C501F096EC00F035
:10429A00C0C5E1FFC1C5E2FFE66ABEC500F0BFC501
:1042AA0001F096EC00F0C0C5E1FFC1C5E2FFE66A85
:1042BA00BEC500F0BFC501F096EC00F0010E020188
:1042CA007E5D036E000E7F59046E04C000F0016A21
:1042DA00C0C5E1FFC1C5E2FF00C0E6FFBEC500F0F0
:1042EA00BFC501F096EC00F002017E05006EC0C564
:1042FA00E1FFC1C5E2FF00C0E6FFBEC500F0BFC5D1
:10430A0001F096EC00F0C4C5E1FFC5C5E2FFB70EA7
:10431A00E66EC2C500F0C3C501F096EC00F0C0C558
:10432A00E1FFC1C5E2FF070EE66EBEC500F0BFC5DC
:10433A0001F096EC00F0C4C5E1FFC5C5E2FFB60E78
:10434A00E66EC2C500F0C3C501F096EC00F0C0C528
:10435A00E1FFC1C5E2FF0A0EE66EBEC500F0BFC5A9
:10436A0001F096EC00F0C0C5E1FFC1C5E2FF820E84
:10437A00E66EBEC500F0BFC501F096EC00F0C0C500
:10438A00E1FFC1C5E2FF270EE66EBEC500F0BFC55C
:10439A0001F096EC00F0C0C5E1FFC1C5E2FFE66A94
:1043AA00BEC500F0BFC501F096EC00F0C4C5E1FF40
:1043BA00C5C5E2FF110EE66EC2C500F0C3C501F025
:1043CA0096EC00F04DEC19F0C4C5E1FFC5C5E2FF5B
:1043DA00290EE66EC2C500F0C3C501F096EC00F0E6
:1043EA004DEC19F0C4C5E1FFC5C5E2FF2C0EE66E1F
:1043FA00C2C500F0C3C501F096EC00F08C8412002F
:10440A004C0E07019E6F8A0E9F6F000EA06FD4ECB0
:10441A0014F0CEEC14F00F0E0701DF6F000EE06F00
:10442A00320EE16F000EE26F310EE36F010EE46FA0
:10443A00460EE56F000EE66F03EC0FF0D90E07018A
:10444A00DF6F000EE06F140EE16F000EE26F370EA1
:0C445A00E36F000EE46F64EC11F0120040
:10446600070183517F5D02E182517E5D2DE3865116
:104476008225006E87518321016E010E005C026E5B
:10448600000E0158036E7F51035C02E17E51025C0F
:104496001BE38551815D02E18451805D15E38851FE
:1044A6008425006E89518521016E010E005C026E25
:1044B600000E0158036E8151035C02E18051025CDB
:0C44C60003E3010E006E01D0006A12003A
:1044D2001DEC15F013EC15F0B3C59EF706EC15F0C4
:1044E2000501B251015C02E1B151005C010ED8B08C
:0A44F200000E026E02C000F012007E
:1044FC00070182517E5D016E83517F59026E01C0AE
:10450C0096F702C097F7800E0218006E800E005CC2
:10451C0002E1000E015C17E296510008036E97C78A
:10452C0004F0000E045686C701F087C702F001366E
:10453C00019002360250045C02E10150035C02E27D
:10454C006BEF29F00FD086C701F087C702F0013658
:10455C00019002360250975D02E10150965D02E235
:10456C006BEF29F08451805D016E85518159026E8B
:10457C0001C096F702C097F7800E0218006E800EED
:10458C00005C02E1000E015C17E296510008036E1C
:10459C0097C704F0000E045686C701F087C702F0D7
:1045AC000136019002360250045C02E10150035CBA
:1045BC0002E26BEF29F00FD086C701F087C702F03B
:1045CC000136019002360250975D02E10150965D72
:1045DC0002E26BEF29F01BC69BF71CC69CF700C6CA
:1045EC009DF787C21BF688C21CF60601006B0701FB
:1045FC0086518025006E87518121016E8651825D26
:10460C00046E87518359056E0450005C8E6F055003
:10461C0001588F6F86517E25026E87517F21036E64
:10462C000250005C906F03500158916F8651845D6D
:10463C00006E87518559016E0250005C926F0350D9
:10464C000158936F0450005C946F05500158956F9E
:10465C0006011D53D8B43BEF27F087C298F788C2E8
:10466C0099F786C29AF707018C6B8D6B86C78AF710
:10467C0087C78BF786C700F087C701F0003600901C
:10468C00013600C088F701C089F700500308886F15
:10469C0001C089F7000E8957010E8A25016E000EA4
:1046AC008B21026E800E8D19006E800E0218005C3C
:1046BC0002E101508C5DD8B01DD39D53D8B44FD2BC
:1046CC000501FF51000AD8A425D111C6F2F712C674
:1046DC00F3F715C6F4F716C6F5F707018651845D96
:1046EC00F66F87518559F76F8A51F6278B51F7234F
:1046FC008051F65F8151F75B8051845DF86F815179
:10470C008559F96F92EC0DF000C0F2F701C0F3F788
:10471C00010E0701F46F41EC0EF086517E25F26F0D
:10472C0087517F21F36F8C51F25F8D51F35B865172
:10473C00825DF46F87518359F56F8C51F4278D513D
:10474C00F5238651845DF66F87518559F76F8A5131
:10475C00F6278B51F72371EC08F011C6F2F712C64D
:10476C00F3F715C6F4F716C6F5F707018651802541
:10477C00F66F87518121F76F8A51F65F8B51F75B8A
:10478C008051F65F8151F75B8051845DF86F8151E8
:10479C008559F96F92EC0DF000C0F2F701C0F3F7F8
:1047AC00010E0701F46F41EC0EF086517E25F26F7D
:1047BC0087517F21F36F8C51F25F8D51F35B8651E2
:1047CC00825DF46F87518359F56F8C51F4278D51AD
:1047DC00F52386518025F66F87518121F76F8A5119
:1047EC00F65F8B51F75B71EC08F011C6F2F712C64D
:1047FC00F3F715C6F4F716C6F5F707018651845D75
:10480C00F66F87518559F76F8C51F6278D51F72329
:10481C008051F65F8151F75B8051845DF86F815157
:10482C008559F96F92EC0DF000C0F2F701C0F3F767
:10483C00010E0701F46F41EC0EF08651845D006EA1
:10484C0087518559016E8A510024F26F8B510120DA
:10485C00F36F9451F25F9551F35B8A51005CF46FE6
:10486C008B510158F56F9251F45F9351F55B8C515C
:10487C000024F66F8D510120F76F71EC08F011C612
:10488C00F2F712C6F3F715C6F4F716C6F5F70701DB
:10489C0086518025F66F87518121F76F8C51F65F19
:1048AC008D51F75B8051F65F8151F75B8051845DD0
:1048BC00F86F81518559F96F92EC0DF000C0F2F749
:1048CC0001C0F3F7010E0701F46F41EC0EF08651B5
:1048DC008025006E87518121016E8A51005CF26F38
:1048EC008B510158F36F9051F25F9151F35B8A51E8
:1048FC000024F46F8B510120F56F8E51F45F8F51B2
:10490C00F55B8C51005CF66F8D510158F76F71ECB3
:10491C0008F024D111C6F2F712C6F3F715C6F4F756
:10492C0016C6F5F707018651825DF66F87518359DC
:10493C00F76F8C51F6278D51F7237E51F65F7F511F
:10494C00F75B7E51825DF86F7F518359F96F92EC62
:10495C000DF000C0F2F701C0F3F7010E0701F46F80
:10496C0041EC0EF086518025F26F87518121F36F57
:10497C008A51F25F8B51F35B8651845DF46F8751E2
:10498C008559F56F8A51F4278B51F5238651825D39
:10499C00F66F87518359F76F8C51F6278D51F7239A
:1049AC0048EC0EF011C6F2F712C6F3F715C6F4F781
:1049BC0016C6F5F7070186517E25F66F87517F21C4
:1049CC00F76F8C51F65F8D51F75B7E51F65F7F511F
:1049DC00F75B7E51825DF86F7F518359F96F92ECD2
:1049EC000DF000C0F2F701C0F3F7010E0701F46FF0
:1049FC0041EC0EF086518025F26F87518121F36FC7
:104A0C008A51F25F8B51F35B8651845DF46F875151
:104A1C008559F56F8A51F4278B51F52386517E25E4
:104A2C00F66F87517F21F76F8C51F65F8D51F75BD5
:104A3C0048EC0EF011C6F2F712C6F3F715C6F4F7F0
:104A4C0016C6F5F707018651825DF66F87518359BB
:104A5C00F76F8A51F6278B51F7237E51F65F7F5102
:104A6C00F75B7E51825DF86F7F518359F96F92EC41
:104A7C000DF000C0F2F701C0F3F7010E0701F46F5F
:104A8C0041EC0EF08651825D006E87518359016EA8
:104A9C008C51005CF26F8D510158F36F8E51F227DF
:104AAC008F51F3238C510024F46F8D510120F56F3D
:104ABC009451F4279551F5238A510024F66F8B51AC
:104ACC000120F76F48EC0EF011C6F2F712C6F3F79F
:104ADC0015C6F4F716C6F5F7070186517E25F66F55
:104AEC0087517F21F76F8A51F65F8B51F75B7E51AF
:104AFC00F65F7F51F75B7E51825DF86F7F51835972
:104B0C00F96F92EC0DF000C0F2F701C0F3F7010E53
:104B1C000701F46F41EC0EF086517E25006E875133
:104B2C007F21016E8C510024F26F8D510120F36FA7
:104B3C009251F2279351F3238C51005CF46F8D51F9
:104B4C000158F56F9051F4279151F5238A51005C6F
:104B5C00F66F8B510158F76F48EC0EF08FD09BC756
:104B6C0087F29CC788F2010E0201866F07018651FD
:104B7C007E25F26F87517F21F36F8C51F25F8D513F
:104B8C00F35B8651825DF46F87518359F56F8C51BD
:104B9C00F4278D51F5238651845DF66F8751855925
:104BAC00F76F8A51F6278B51F72371EC08F0070148
:104BBC0086517E25F26F87517F21F36F8C51F25F06
:104BCC008D51F35B8651825DF46F87518359F56F7C
:104BDC008C51F4278D51F52386518025F66F875122
:104BEC008121F76F8A51F65F8B51F75B71EC08F0FE
:104BFC0007018651845D006E87518559016E8A517B
:104C0C000024F26F8B510120F36F9451F25F955198
:104C1C00F35B8A51005CF46F8B510158F56F925124
:104C2C00F45F9351F55B8C510024F66F8D5101208C
:104C3C00F76F71EC08F0070186518025006E8751E3
:104C4C008121016E8A51005CF26F8B510158F36F18
:104C5C009051F25F9151F35B8A510024F46F8B51A8
:104C6C000120F56F8E51F45F8F51F55B8C51005C18
:104C7C00F66F8D510158F76F71EC08F0800E07013B
:104C8C008919006E800E005C02E1000E885D13E253
:104C9C008CC700F08DC701F000360090013600364D
:104CAC0000900136060E0026000E012200508827C7
:104CBC00015089231CD08A518C5D036E8B518D5908
:104CCC00046E03C000F004C001F000360090013601
:104CDC000036009001360A0E0026000E012200500C
:104CEC00882701508923010E8A5F000E8B5B8C4B49
:104CFC008D2BD2D49D53D8B48ED00501FF51000A10
:104D0C0045E10701865180258A6F875181218B6F80
:104D1C008651845D016E87518559026E8B51025C00
:104D2C0002E18A51015C31E311C6F2F712C6F3F7C6
:104D3C0015C6F4F716C6F5F780518A5DF66F8151EA
:104D4C008B59F76F8051845DF86F81518559F96FDC
:104D5C0092EC0DF000C0F2F701C0F3F7010E070161
:104D6C00F46F41EC0EF07EC7F2F77FC7F3F782C702
:104D7C00F4F783C7F5F78AC7F6F78BC7F7F771EC2B
:104D8C0008F007018A4B8B2BC3D744D007018651FF
:104D9C007E258C6F87517F218D6F8651825D016ED0
:104DAC0087518359026E8D51025C02E18C51015C7A
:104DBC0031E311C6F2F712C6F3F715C6F4F716C6AF
:104DCC00F5F77E518C5DF66F7F518D59F76F7E51E3
:104DDC00825DF86F7F518359F96F92EC0DF000C032
:104DEC00F2F701C0F3F7010E0701F46F41EC0EF07E
:104DFC0080C7F2F781C7F3F784C7F4F785C7F5F7D7
:104E0C008CC7F6F78DC7F7F748EC0EF007018C4B03
:104E1C008D2BC3D724D0865180258A6F8751812151
:104E2C008B6F8651845D016E87518559026E8B5153
:104E3C00025C02E18A51015C12E37EC7F2F77FC784
:104E4C00F3F782C7F4F783C7F5F78AC7F6F78BC772
:104E5C00F7F771EC08F007018A4B8B2BE2D798C758
:104E6C0087F299C788F29AC786F207018C6B8D6B13
:104E7C0086C78AF787C78BF786C700F087C701F00C
:104E8C0000360090013600C088F701C089F7005049
:104E9C000308886F01C089F7000E8957010E8A2517
:104EAC00016E000E8B21026E800E8D19006E800E2D
:104EBC000218005C02E101508C5DD8B063D18651C0
:104ECC007E259E6F87517F219F6F8C519E5F8D51E8
:104EDC009F5B8651845DA06F87518559A16F8A5164
:104EEC00A0278B51A123020186050701A26FA36B9A
:104EFC00000EA35BA333A233A39FA3BDA38F010E0C
:104F0C00A46FEFEC15F08651825D9E6F875183592B
:104F1C009F6F8C519E278D519F238651845DA06F6E
:104F2C0087518559A16F8A51A0278B51A12302016A
:104F3C0086050701A26FA36B000EA35BA333A233FC
:104F4C00A39FA3BDA38F010EA46FEFEC15F08651A8
:104F5C007E259E6F87517F219F6F8C519E5F8D5157
:104F6C009F5B86518025A06F87518121A16F8A514B
:104F7C00A05F8B51A15B020186050701A26FA36B99
:104F8C00000EA35BA333A233A39FA3BDA38F010E7B
:104F9C00A46FEFEC15F08651825D9E6F875183599B
:104FAC009F6F8C519E278D519F2386518025A06F1A
:104FBC0087518121A16F8A51A05F8B51A15B0201A6
:104FCC0086050701A26FA36B000EA35BA333A2336C
:104FDC00A39FA3BDA38F010EA46FEFEC15F0865118
:104FEC00845D006E87518559016E8A5100249E6F35
:104FFC008B5101209F6F94519E5F95519F5B8C51FB
:10500C000024A06F8D510120A16F020186050701BC
:10501C00A26FA36B000EA35BA333A233A39FA3BD0C
:10502C00A38F010EA46FEFEC15F08651845D006E1A
:10503C0087518559016E8A51005C9E6F8B510158C6
:10504C009F6F92519E5F93519F5B8C510024A06F78
:10505C008D510120A16F020186050701A26FA36B80
:10506C00000EA35BA333A233A39FA3BDA38F010E9A
:10507C00A46FEFEC15F086518025006E87518121CD
:10508C00016E8A51005C9E6F8B5101589F6F90513D
:10509C009E5F91519F5B8C51005CA06F8D510158AC
:1050AC00A16F020186050701A26FA36B000EA35B23
:1050BC00A333A233A39FA3BDA38F010EA46FEFEC68
:1050CC0015F086518025006E87518121016E8A5121
:1050DC0000249E6F8B5101209F6F8E519E5F8F51CC
:1050EC009F5B8C51005CA06F8D510158A16F020128
:1050FC0086050701A26FA36B000EA35BA333A2333B
:10510C00A39FA3BDA38F010EA46FEFEC15F0800E2F
:10511C008919006E800E005C02E1000E885D13E2BE
:10512C008CC700F08DC701F00036009001360036B8
:10513C0000900136060E0026000E01220050882732
:10514C00015089231CD08A518C5D036E8B518D5973
:10515C00046E03C000F004C001F00036009001366C
:10516C000036009001360A0E0026000E0122005077
:10517C00882701508923010E8A5F000E8B5B8C4BB4
:10518C008D2B8CD686517E259E6F87517F219F6FEC
:10519C0080C7A0F781C7A1F78651825DA26F8751A6
:1051AC008359A36F80C7A4F781C7A5F75BEC19F0EF
:1051BC00020186A118D0070186517E259E6F87516A
:1051CC007F219F6F84C7A0F785C7A1F78651825DA9
:1051DC00A26F87518359A36F84C7A4F785C7A5F71E
:1051EC005BEC19F01DD0070186517E259E6F87510F
:1051FC007F219F6F010E8425006E000E8521016EAC
:10520C0000C0A0F701C0A1F78651825DA26F875143
:10521C008359A36F00C0A4F701C0A5F75BEC19F08C
:10522C007EC79EF77FC79FF7070186518025A06F29
:10523C0087518121A16F7EC7A2F77FC7A3F7865143
:10524C00845DA46F87518559A56F5BEC19F0020141
:10525C0086A118D082C79EF783C79FF70701865196
:10526C008025A06F87518121A16F82C7A2F783C7C8
:10527C00A3F78651845DA46F87518559A56F5BECAC
:10528C0019F01DD0010E07018225006E000E83213E
:10529C00016E00C09EF701C09FF786518025A06F5C
:1052AC0087518121A16F00C0A2F701C0A3F78651DD
:1052BC00845DA46F87518559A56F5BEC19F09BC772
:0C52CC001BF69CC71CF69DC700F61200E4
:1052D800920E08010B6F810E0C6F000E0D6F1F0EE2
:1052E8000E6F000E0F6F106B59EC06F0600E070181
:1052F8009E6F8A0E9F6F000EA06FD4EC14F0CEEC58
:1053080014F00F0E0701DF6F000EE06F320EE16F31
:10531800000EE26F310EE36F010EE46F460EE56F8B
:10532800000EE66F03EC0FF0C00E0701DF6F000EF2
:10533800E06F140EE16F000EE26F370EE36F000EA0
:10534800E46F64EC11F055EC11F0DC0E9E6F890EE1
:105358009F6F000EA06FD4EC14F0CEEC14F055EC57
:1053680011F08B0E07019E6F8A0E9F6F000EA06FC3
:10537800D4EC14F0CEEC14F055EC11F0EB0E070160
:105388009E6F890E9F6F000EA06FD4EC14F0910EE3
:105398009E6F8A0E9F6F000EA06FD4EC14F0CEECB7
:1053A80014F0330E07019E6F8A0E9F6F000EA06FD8
:1053B800D4EC14F0730E9E6F8A0E9F6F000EA06FD0
:1053C800D4EC14F0CEEC14F0B90E07019E6F890EE0
:1053D8009F6F000EA06FD4EC14F0CEEC14F00F0EFB
:1053E8000701DF6F000EE06F320EE16F000EE26F13
:1053F800310EE36F010EE46F460EE56F000EE66FA7
:1054080003EC0FF0AC0E0701DF6F000EE06F140E17
:10541800E16F000EE26F370EE36F000EE46F64EC8D
:1054280011F055EC11F055EC11F002019B6B9D8ABF
:06543800F28CF28E12005E
:10543E00DFEC15F0DFEC15F0DFEC15F0DFEC15F01E
:0A544E00DFEC15F0DFEC15F01200A2
:105458006A0E07019E6F8A0E9F6F000EA06FD4EC34
:1054680014F0CEEC14F09D8AF28CF28E0F0E070128
:10547800DF6F000EE06F320EE16F000EE26F310E4B
:10548800E36F010EE46F460EE56F000EE66F03EC66
:105498000FF00D0E0701DF6F010EE06F140EE16FC4
:1054A800000EE26F370EE36F000EE46F64EC11F04C
:1054B80055EC11F02AEC13F05750000AFBE00F0EE0
:1054C8000701DF6F000EE06F320EE16F000EE26F32
:1054D800310EE36F010EE46F460EE56F000EE66FC6
:1054E80003EC0FF0510E0701DF6F000EE06F140E92
:1054F800E16F000EE26F370EE36F000EE46F64ECAD
:1055080011F0D8EC11F0840E07019E6F8A0E9F6F80
:10551800000EA06FD4EC14F0A30E9E6F020E9F6FC6
:10552800D2EC11F09C0E9E6F020E9F6FD2EC11F020
:06553800CEEC14F012009D
:10553E00840E0501B16F030EB26F78C7DCF579C723
:10554E00DDF57AC7DAF57BC7DBF57CC7C6F57DC717
:0C555E00B3F5D86BD96BE26BE36B120065
:10556A001DEC15F067DFB3C59EF706EC15F00501D3
:10557A00B251015C02E1B151005C010ED8B0000EDB
:08558A00026E02C000F01200E5
:0A55920078C7B1F579C7B2F5120031
:0C559C000101476B486B06011A6B1200FE
:1055A80069EC22F0005201E1FBD7E0EC1CF000C0EE
:1055B800E0F501C0E1F51FEC1BF000C0DEF501C00D
:0455C800DFF51200F9
:1055CC00D8EC15F036DFB3C59EF706EC15F01200DB
:1055DC00F20E0501CF6F000ED06F2D0ED16F080E9D
:1055EC00D26F060ECB6F780ECC6F000ECD6F000E07
:1055FC00CE6FFF0EC76FFF0EC86F000EC96F000E87
:10560C00CA6FFF0ED46FFF0ED56F000ED66F000E53
:10561C00D76FAD8A900EAC6E948E949C9EAA03D0DC
:08562C00AFCF00F0FBD7120024
:0656340006EC1DF012005F
:10563A00E40E0501CF6F000ED06F2D0ED16F080E4C
:10564A00D26F180ECB6F780ECC6F000ECD6F000E96
:10565A00CE6FFF0EC76FFF0EC86F000EC96F000E28
:10566A00CA6FFF0ED46FFF0ED56F000ED66F000EF5
:10567A00D76FA88A900E9C6E98849892A4AA03D099
:08568A00AACF00F0FBD71200CB
:1056920003EC1DF00050010A19E0D60E0501C26F9D
:1056A200000EC36F2D0EC46F080EC56FC80EBE6FFD
:1056B200000EBF6F2D0EC06F080EC16FF60EF96F90
:1056C200040EFA6F190EFB6F080EFC6F78C780F29A
:1056D20079C781F27AC77EF27BC77FF207017B51DD
:1056E200795D02E17A51785D03E30101446B03D0F5
:1056F20001015A0E446F0701F26BF36B010EF46F56
:1057020041EC0EF07E6B7F6B806B816B826B836BE7
:10571200846B856B866BF0EC1CF0F26BF36BF46BB5
:10572200F56B89EC0DF00201896B9A6A15EC1DF09C
:10573200620E0601016F030E026F190E036F080E4F
:04574200046F1200DE
:085746000101426B436B1200EC
:10574E0069EC22F0005201E1FBD7E0EC1CF000C046
:10575E00B6F501C0B7F51FEC1BF000C0B4F501C0E3
:04576E00B5F512007B
:105772000C0E07017825E96E000E7921EA6EEE50D3
:10578200010A3EE10D0E7825E96E000E7921EA6EDE
:10579200EECFF2F7EECFF3F70B0E7825E96E000E9F
:1057A2007921EA6EEECFF4F741EC0EF0030E782584
:1057B200E96E000E7921EA6EEECF9EF7EECF9FF7EB
:1057C200050E7825E96E000E7921EA6EEECFA0F77C
:1057D200EECFA1F7070E7825E96E000E7921EA6E69
:1057E200EECFA2F7EECFA3F7090E7825E96E000EF1
:1057F2007921EA6EEECFA4F7EECFA5F75BEC19F0B4
:02580200120092
:105804008C9432EC05F0005224E0010E0201805D1C
:10581400026E000E8159036E010E7E5D006E000E55
:105824007F59016E07C6E1FF08C6E2FFE66AE66A31
:10583400E66AE66A02C0E6FF03C0E6FF00C0E6FFD0
:1058440001C0E6FF05C600F006C601F096EC00F0C4
:105854000ED003C6E1FF04C6E2FFE66AE66AE66A22
:10586400E66A01C600F002C601F096EC00F00701FA
:105874007A6B7B6B02017F5107017B5D04E10201BE
:105884007E5107017A5D21E27C6B7D6B02018151BF
:1058940007017D5D04E10201805107017C5D12E294
:1058A400FBC5E1FFFCC5E2FF78C7E6FF79C7E6FF69
:1058B400F9C500F0FAC501F096EC00F007017C4B45
:0E58C4007D2BE4D77A4B7B2BD5D78C8412003A
:1058D2000E0E07017825E96E000E7921EA6EEE5070
:1058E200010AD8A40FD206017051010A3BE1706B84
:1058F200100E07017825E96E000E7921EA6EEECFCF
:105902007EF7230E7825E96E000E7921EA6EEECF3E
:105912007FF7EECF80F7190E7825E96E000E792118
:10592200EA6EEECF81F71A0E7825E96E000E792124
:10593200EA6EEECF82F71D0E7825E96E000E792110
:10594200EA6EEECF83F7EECF84F71B0E7825E96E71
:10595200000E7921EA6EEECF85F7EECF86F7F0ECF6
:105962001CF039D00701100E7825E96E000E79215E
:10597200EA6EEECF7EF71F0E7825E96E000E7921D2
:10598200EA6EEECF7FF7EECF80F7190E7825E96E3B
:10599200000E7921EA6EEECF81F71A0E7825E96EB4
:1059A200000E7921EA6EEECF82F71B0E7825E96EA2
:1059B200000E7921EA6EEECF83F7EECF84F71D0E4B
:1059C2007825E96E000E7921EA6EEECF85F7EECFEB
:1059D20086F7F0EC1CF00C0E7825E96E000E7921AA
:1059E200EA6EEECFF2F7EECFF3F70B0E7825E96E03
:1059F200000E7921EA6EEECFF4F741EC0EF0030EC1
:105A02007825E96E000E7921EA6EEECF02F0EECF34
:105A120003F0010E02247E6F000E03207F6F050E3D
:105A22007825E96E000E7921EA6EEECF00F0EECF16
