:0400000099EF24F060
:1000080000C016F001C015F0E1CF17F0E2CF18F0EC
:100018009EAA23D0D1EC22F000C076F100500D0A40
:100028000CE19D0E00016125E16E040E6221E26E75
:10003800E66A010E04019C6F0FD0010176510A0A8D
:100048000BE09D0E00016125E16E040E6221E26E57
:1000580076C1E6FF614B622B9E9AA4AA23D00001C9
:100068009B0ED1250501D16F010E0001D22105019A
:10007800D26FDAEC22F0D1C5E1FFD2C5E2FF00C0B1
:10008800E6FF0001D14BD22BD251030A02E1000E48
:10009800D11907E1D16BD26B010EE66FA39AF29EDC
:1000A800F29CA49A16C000F015C001F017C0E1FF39
:0600B80018C0E2FF110078
:1000BE000B820BAE69EF00F00368026801680068FE
:0800CE000A360232FF0E120097
:0E00D600026A016A006A086A036A000E1200DC
:1000E400C7B409D01F0EC514016E0150000A03E104
:0A00F400010E006E01D0006A120038
:1000FE000B840BAE8AEF00F0010E036E026A016AEA
:0A010E00006A0A360232FF0E1200EA
:080118000AAE029E000E120067
:04012000C584120080
:100124009E96C5869EB601D0FDD7C9CF01F00501C4
:10013400CF51000A02E1C58A01D0C59A9E96C588AE
:0C0144009EB601D0FDD701C000F01200F3
:100150000A6A0350D8A40A800750D8A40A820A5019
:10016000D8B40BEF01F0030AD8B4C4EF00F00AB022
:10017000BFEF00F006AE09EF01F007EF01F002AEAD
:1001800007EF01F009EF01F00250800B0A6E029EAA
:100190000650800B069E0A18D8B4D5EF00F00A501E
:1001A000D8B407EF01F009EF01F00750035CD8B4B1
:1001B000DFEF00F0D8A0FBEF00F001EF01F00650F8
:1001C000025CD8B4E9EF00F0D8A0FBEF00F001EF3B
:1001D00001F00550015CD8B4F3EF00F0D8A0FBEFBC
:1001E00000F001EF01F00450005CD8B40BEF01F017
:1001F000D8B001EF01F00A52D8B409EF01F007EFCF
:1002000001F00A52D8B407EF01F009EF01F0D880ED
:0E0210001200D8901200D880D884120012007C
:08021E000B6A0B86FF0E1200B3
:100226000CB055EF01F00CA2FBEF01F00E6A000EC8
:1002360002646CEF01F0F00E0214D8A437EF01F05F
:10024600023A01380F0B02260138F00B016E003816
:100256000F0B01260038F00B006E08380F0B002636
:100266000838F00B086E0E84D89002BE50EF01F0ED
:1002760008360036013602360E2A02BE50EF01F06D
:1002860008360036013602360E2A02BE50EF01F05D
:1002960008360036013602360E2A0E500364F1EF98
:1002A60001F0035E0BBC08AEF6EF01F0D880800EBD
:1002B60008640030000E002201220222D8A0F6EFC8
:1002C60001F0023201320032034AFBEF01F0F6EF91
:1002D60001F001C002F000C001F008C000F0086A99
:1002E600000E0E860264A3EF01F0F00E0214D8A4ED
:1002F6008BEF01F0023A01380F0B02260138F00BA2
:10030600016E00380F0B01260038F00B006E0E84CC
:10031600D89002BE50EF01F00036013602360E2AA2
:1003260002BE50EF01F00036013602360E2A02BE3A
:1003360050EF01F00036013602360E2A50EF01F07A
:1003460001C002F000C001F0006A000E0E960E8891
:100356000264D0EF01F0F00E0214D8A4BBEF01F056
:10036600023A01380F0B02260138F00B016E0E849B
:10037600D89002BE50EF01F0013602360E2A02BEB8
:1003860050EF01F0013602360E2A02BE50EF01F0A0
:10039600013602360E2A50EF01F001C002F0016A62
:1003A600000E0E86026400EF02F0F00E0214D8A4CE
:1003B600DFEF01F0023A0E84D89002BE50EF01F052
:1003C60002360E2A02BE50EF01F002360E2A02BE97
:1003D60050EF01F002360E2A50EF01F0010E0C6EBE
:1003E6008BDE03EF02F0020E0C6E93DE03EF02F0DB
:1003F600040E0C6E61DE03EF02F0080E0C6E68DE72
:020406001200E2
:100408000501CF6BD06BD051120802E1CF518E0895
:1004180008E364DE005201E004D00501CF4BD02B85
:10042800F2D70501120ED05D02E18F0ECF5D03E316
:100438007B0E006E05D0C580C5A001D0FDD7006A2F
:020448001200A0
:0A044A00C582C5A201D0FDD7120043
:100454009E96CFC5C9FFC7A401D0FDD79EB601D0D3
:10046400FDD7C5BC02D0006A03D0C584020E006E5D
:02047400120074
:10047600C8DFC7C5CFF5EBDFC8C5CFF5E8DF020E8D
:100486000C6E3D0E0D6E0D2EFED70C2EFCD7000009
:100496000000D8DF0501C751010FCF6FD8DF050176
:1004A600CF6B3DDEC9C5E1FFCAC5E2FF00C0E6FF6E
:0804B60034DE010E006E12009D
:1004BE00C70E046E050E056E030E0424E96E000EC3
:1004CE000520EA6E7E0EEE5C006E016A000E015A89
:1004DE00CBC5E1FFCCC5E2FF00C0E6FF01C0E6FFE1
:1004EE00030E0424E16E000E0520E26E7E0EE66E13
:1004FE00C7C500F0C8C501F0C9C502F0CAC503F0F2
:02050E001200D9
:100510000450000A12E10550000A0FE10650000ADB
:100520000CE10750000A09E1FF0E006EFF0E016E9C
:100530007F0E026EFF0E036EA4D0086A096A075090
:10054000D8B433EF03F00350D8B437EF03F00250C0
:1005500006180A6E028E068E0E6A02C008F001C0EE
:100560000CF000C00DF004500D5E0550D8A0053C05
:100570000C5E0650D8A0063C085E086A0C6A0D6A3C
:10058000D8A0CAEF02F0D89002320132003208320D
:10059000010E0E6E0750035ED8A0D7EF02F07E0E5C
:1005A0000E240326D8B03BEF03F0DDEF02F07E0E01
:1005B0000E240326D8A03FEF03F0180E0B6E0D3665
:1005C0000C3608360036013602360E360450005E10
:1005D0000550D8A0053C015E0650D8A0063C025E3E
:1005E00006340E120EA0F8EF02F00D8003EF03F0B8
:1005F000045000260550D8B0053C01260650D8B05E
:10060000062802260D900B2EDFEF02F029EF03F0F3
:10061000D8900036013602360E360450005E055082
:10062000D8A0053C015E0650D8A0063C025E063408
:100630000E10010B0D26D8B00C2AD8B4082AD8A465
:1006400029EF03F008320C320D32032AD8B43BEF05
:1006500003F00AAE089E0850026E0C50016E0D5059
:10066000006E41EF03F0010EDADD41EF03F0020E00
:1006700032DD41EF03F0040E22DD41EF03F0080EFE
:040680003EDD120049
:10068400086A096A000E07620364C7EF03F00250A8
:1006940006180A6E075003267E0ED8A058EF03F002
:1006A400035ED8B0CBEF03F05CEF03F0035ED8A099
:1006B400CFEF03F0028E068E02C00EF001C00BF0E5
:1006C40000C00DF000500402F4CF0CF001500502FC
:1006D400F4CF00F0F3CF08F00402F3500C26F450EA
:1006E4000822000E00220D500502F3500C26F4508F
:1006F4000822000E002202500402F3500826F4508F
:10070400002202500502016A000E0122F350002665
:10071400F45001220D500602F3500826F450002232
:10072400026A000E012202220B500602F350002638
:10073400F4500122000E02220E500602F35001264C
:10074400F450022202BEAFEF03F008360036013641
:1007540002360306D8B4CFEF03F0C2EF03F0D8801B
:10076400800E08640030000E002201220222D8A06C
:10077400C2EF03F0023201320032034ACBEF03F03E
:100784000AAE029E000ED1EF03F0010EA2DCD1EFFF
:1007940003F0020E92DCD1EF03F0040EAEDC120083
:1007A400025006180E6E086A096A0B6A0350076441
:1007B400C5EF04F006500A6E068E028E03500B6ECF
:1007C4000750036E000E0B6415EF04F00B50075E28
:1007D400D8B4B6EF04F0070E076484EF04F0075EA4
:1007E40000C008F001C000F002C001F0026A074E28
:1007F400B6EF04F0076459EF04F0075E00C008F098
:1008040001C000F0016A074EB6EF04F0076437EF49
:1008140004F0075E00C008F0006A074EB6EF04F06B
:1008240007641EEF04F00AC002F005C001F004C022
:1008340000F0086AE2EF05F0030E076429EF04F004
:10084400075E08380F0B086E074EB6EF04F0D89019
:100854000832074EB6EF04F0D8900832074EB6EFD0
:1008640004F0D8900832B6EF04F0030E076448EFA2
:1008740004F0075E08380F0B086E0038F00B0826EA
:1008840000380F0B006E074EB6EF04F0D89000321C
:100894000832074EB6EF04F0D89000320832074E03
:1008A400B6EF04F0D89000320832B6EF04F0030E2D
:1008B400076470EF04F0075E08380F0B086E003809
:1008C400F00B082600380F0B006E0138F00B0026E1
:1008D40001380F0B016E074EB6EF04F0D8900132C9
:1008E40000320832074EB6EF04F0D89001320032DD
:1008F4000832074EB6EF04F0D890013200320832C5
:10090400B6EF04F0030E0764A1EF04F0075E0838A5
:100914000F0B086E0038F00B082600380F0B006E22
:100924000138F00B002601380F0B016E0238F00B72
:10093400012602380F0B026E074EB6EF04F0D89072
:100944000232013200320832074EB6EF04F0D8907A
:100954000232013200320832074EB6EF04F0D8906A
:100964000232013200320832096A000E0EAEAAEFDA
:1009740005F0081E001E011E021E082A0022012284
:100984000222AAEF05F00750D8A4CBEF04F0E2EF5F
:1009940005F0096A02C00AF0028E068E0750035C55
:1009A400076ED8B49DEF05F0070E07646BEF05F0F2
:1009B400075E0450096E0550046E0650056E066A03
:1009C400074E9DEF05F0070E076440EF05F0075E44
:1009D4000450096E0550046E056A074E9DEF05F03C
:1009E400070E07641EEF05F0075E0450096E046AE3
:1009F400074E9DEF05F0070E076405EF05F00AC0EA
:100A040002F0E2EF05F0030E076410EF05F0075E55
:100A140009380F0B096E074E9DEF05F0D890093287
:100A2400074E9DEF05F0D8900932074E9DEF05F073
:100A3400D89009329DEF05F0030E07642FEF05F0FF
:100A4400075E09380F0B096E0438F00B09260438C9
:100A54000F0B046E074E9DEF05F0D8900432093257
:100A6400074E9DEF05F0D89004320932074E9DEFF2
:100A740005F0D890043209329DEF05F0030E0764A7
:100A840057EF05F0075E09380F0B096E0438F00BB9
:100A9400092604380F0B046E0538F00B04260538BC
:100AA4000F0B056E074E9DEF05F0D890053204320A
:100AB4000932074E9DEF05F0D89005320432093211
:100AC400074E9DEF05F0D8900532043209329DEFB0
:100AD40005F0030E076488EF05F0075E09380F0B75
:100AE400096E0438F00B092604380F0B046E053820
:100AF400F00B042605380F0B056E0638F00B05269F
:100B040006380F0B066E074E9DEF05F0D89006329F
:100B1400053204320932074E9DEF05F0D8900632B3
:100B2400053204320932074E9DEF05F0D8900632A3
:100B3400053204320932086A000E0EAEAAEF05F03F
:100B4400091E041E051E061E092A04220522062269
:100B540009500826045000220550012206500222A2
:100B64000EBEC1EF05F0D8A0D0EF05F0023201327D
:100B740000320832033ED0EF05F0DCEF05F0D8B0C8
:100B8400D6EF05F0000E081E001E011E021E082AE4
:100B94000022012202220A7ED6EF05F0010E0C6E1D
:100BA40013EC01F0E4EF05F0020E0C6E13EC01F00F
:100BB400E4EF05F0040E0C6E5FEC00F0E4EF05F0DA
:060BC400000E0C6E120091
:100BCA0003500718D8A4F9EF05F002500618D8A464
:100BDA00F9EF05F001500518D8A4F9EF05F0005017
:0E0BEA000418D8B4D8841200D8941200120057
:100BF800C70E0501CD6F050ECE6F030ECD25D96E3C
:100C0800000ECE21DA6EDE50CB25016E000ECC210F
:100C1800026E01C0CBF502C0CCF5800E0218006E42
:100C2800800E005C02E1000E015C05E2006A016AC8
:100C3800026A036A3FD0800E006E800ECC19005CF9
:100C480002E1CB51FF0826E2046A056A066A076AD0
:100C5800C7C500F0C8C501F0C9C502F0CAC503F090
:100C6800A8EC00F0010ED8B0000E006E005209E0AA
:100C7800FF0E006EFF0E016EFF0E026EFF0E036E7A
:100C880019D0FF0E006EFF0E016E7F0E026EFF0E72
:100C9800036E10D0030ECD25E16E000ECE21E26E5C
:100CA800CBC5E6FFC7C500F0C8C501F0C9C502F04D
:060CB800CAC503F01200A2
:100CBE00BFC500F0C0C501F0000E0501C0BFFF0E9C
:100CCE00026E036E00360090013602360336003691
:100CDE000090013602360336BC510024F66EBD512B
:100CEE000120F76EBE510220F86E0900F5CFC1F556
:100CFE000900F5CFC2F50900F5CFC3F50900F5CF10
:100D0E00C4F5BF51C01147E0B8C500F0B9C501F038
:100D1E00BAC502F0BBC503F0C1C504F0C2C505F0EB
:100D2E00C3C506F0C4C507F0A6DC010EBF5F000EFA
:100D3E00C05BBFC504F0C0C505F0000EC0BFFF0EFE
:100D4E00066E076E043604900536063607360436F0
:100D5E000490053606360736BC510424F66EBD5196
:100D6E000520F76EBE510620F86E0900F5CF04F08F
:100D7E000900F5CF05F00900F5CF06F00900F5CF13
:100D8E0007F009DD00C0C1F501C0C2F502C0C3F510
:100D9E0003C0C4F5B6D7C1C500F0C2C501F0C3C5C6
:080DAE0002F0C4C503F01200BD
:100DB600046A056A066A076AB8C500F0B9C501F093
:100DC600BAC502F0BBC503F0A8EC00F0010ED8B01E
:100DD600000E006E00520EE0000E0501B819006EFE
:100DE600000EB919016E800EBA19026E000EBB19FB
:100DF600036E08D0B8C500F0B9C501F0BAC502F057
:060E0600BBC503F0120061
:060E0C00067ECADC1200A4
:100E12003C0E0501C76F040EC86FBA0EC96F050EEE
:100E2200CA6F3BEC02F0005202E1006A7FD03C0E36
:100E32000501C76F030EC86FBB0EC96F050ECA6FDF
:100E42003BEC02F0005202E1006A70D0BBC501F037
:100E5200006A0501BA510012000E0112B8C5E1FF85
:100E6200B9C5E2FF00C0E6FF01C0E6FF3C0EC76F56
:100E7200080EC86FBA0EC96F050ECA6F3BEC02F0BE
:100E8200005202E1006A52D03C0E0501C76F070E04
:100E9200C86FBB0EC96F050ECA6F3BEC02F0005261
:100EA20002E1006A43D0020E0501B825E16E000E90
:100EB200B921E26EBBC501F0006ABA510012000E00
:100EC200011200C0E6FF01C0E6FF3C0EC76F060E2E
:100ED200C86FBA0EC96F050ECA6F3BEC02F0005222
:100EE20002E1006A23D03C0E0501C76F050EC86FF0
:100EF200BB0EC96F050ECA6F3BEC02F0005202E155
:100F0200006A14D0040E0501B825E16E000EB92165
:100F1200E26EBBC501F0006ABA510012000E011266
:0E0F220000C0E6FF01C0E6FF010E006E1200E7
:100F3000320E0501C76F280EC86FBA0EC96F050EB5
:100F4000CA6F3BEC02F0005202E1006A88D0320E18
:100F50000501C76F290EC86FBB0EC96F050ECA6F9A
:100F60003BEC02F0005202E1006A79D0BBC501F00F
:100F7000006A0501BA510010036E01C004F0000EB2
:100F80000412B8C5E1FFB9C5E2FF00C0E6FF01C029
:100F9000E6FF320EC76F2A0EC86FBA0EC96F050E74
:100FA000CA6F3BEC02F0005202E1006A58D0320EE8
:100FB0000501C76F2B0EC86FBB0EC96F050ECA6F38
:100FC0003BEC02F0005202E1006A49D0020E05013A
:100FD000B825E16E000EB921E26EBBC501F0006AD2
:100FE000BA510010036E01C004F0000E041200C0DC
:100FF000E6FF01C0E6FF320EC76F2C0EC86FBA0EB7
:10100000C96F050ECA6F3BEC02F0005202E1006AA4
:1010100026D0320E0501C76F2D0EC86FBB0EC96FEB
:10102000050ECA6F3BEC02F0005202E1006A17D0D5
:10103000040E0501B825E16E000EB921E26EBBC5B4
:1010400001F0006ABA510010036E01C004F0000EF6
:10105000041200C0E6FF01C0E6FF010E006E1200A0
:101060000B800BAE3CEF08F0026A0AAEFF0E026E78
:0C107000016E006E0A360232FF0E120004
:10107C000C6A0E6A0250D8A457EF08F001C002F0B7
:10108C0000C001F0006A0E860250D8A457EF08F099
:10109C0001C002F0016A0E960E880250D8B469EFB6
:1010AC0008F00E50035ED8A4D8A06FEF08F0D890CB
:1010BC0002BE75EF08F0003601360236032E5EEFE5
:1010CC0008F06FEF08F0010E0C6E6BEC00F079EF8E
:1010DC0008F0020E0C6E7FEC00F079EF08F0040EB5
:0810EC000C6E8CEC00F0120008
:1010F400B8C504F0B9C505F0BAC506F0BBC507F01C
:10110400006A016A026A036AA8EC00F0000ED8B013
:10111400010E006E005205E0006A016A026A036A69
:10112400F2D0B8C5BCF5B9C5BDF5BAC5BEF5BBC5E9
:10113400BFF5000E046E000E056E000E066E7F0EE7
:10114400076EB8C500F0B9C501F0BAC502F0BBC559
:1011540003F0A8EC00F0010ED8B0000E006E0052AF
:101164001AE0BCC504F0BDC505F0BEC506F0BFC598
:1011740007F0000E006E000E016E000E026E7F0E70
:10118400036E88EC02F000C0BCF501C0BDF502C0DE
:10119400BEF503C0BFF5BCC5C7F5BDC5C8F5BEC522
:1011A400C9F5BFC5CAF5C50E0501CB6F050ECC6FD9
:1011B4005FEC02F000C0BCF501C0BDF502C0BEF595
:1011C40003C0BFF500C0C7F501C0C8F502C0C9F52A
:1011D40003C0CAF5C5C5CBF5C6C5CCF5CC33CB33F6
:1011E400CC9FCCBDCC8F06DD00C0BCF501C0BDF5E5
:1011F40002C0BEF503C0BFF5000E046E000E056EFE
:10120400000E066E7F0E076EB8C500F0B9C501F07A
:10121400BAC502F0BBC503F0A8EC00F0010ED8B0CB
:10122400000E006E00521AE0BCC504F0BDC505F006
:10123400BEC506F0BFC507F0000E006E000E016EBD
:10124400000E026E7F0E036E88EC02F000C0BCF547
:1012540001C0BDF502C0BEF503C0BFF5140E050103
:10126400C46FBCC504F0BDC505F0BEC506F0BFC55E
:1012740007F0B8C500F0B9C501F0BAC502F0BBC5A6
:1012840003F088EC02F0BCC504F0BDC505F0BEC592
:1012940006F0BFC507F0D2EC03F0000E046E000E9A
:1012A400056E000E066E800E076E88EC02F000C01C
:1012B400C0F501C0C1F502C0C2F503C0C3F5BCC589
:1012C40004F0BDC505F0BEC506F0BFC507F07BDC64
:1012D400010ED8A4000E006E005201E00CD0C0C56F
:1012E400BCF5C1C5BDF5C2C5BEF5C3C5BFF5050195
:1012F400C407C453B6E1BCC500F0BDC501F0BEC50A
:0813040002F0BFC503F0120066
:10130C000501B76BAB6BAC6BAD6BAE6BAF6BB06B16
:10131C00B16BB26BB36BB46BB56BB66BB76B080ED2
:10132C00B75D6CE2AA51000A06E1A8C5B8F5A9C5DB
:10133C00B9F5F8DD05D0A8C5B8F5A9C5B9F563DDD3
:10134C00A8C5E9FFA9C5EAFFEECF00F0EECF01F08A
:10135C00000E01BEFF0E026E036E0501AB5100269E
:10136C00AC510122AD510222AE51032200C0ABF5AB
:10137C0001C0ACF502C0ADF503C0AEF5020EA82558
:10138C00D96E000EA921DA6EDECF00F0DECF01F0AF
:10139C00000E01BEFF0E026E036EAF510026B0515F
:1013AC000122B1510222B251032200C0AFF501C09B
:1013BC00B0F502C0B1F503C0B2F5040EA825D96E84
:1013CC00000EA921DA6EDECF00F0DECF01F0000EA8
:1013DC0001BEFF0E026E036EB3510026B451012202
:1013EC00B5510222B651032200C0B3F501C0B4F5C9
:1013FC0002C0B5F503C0B6F5B72B91D7030E046E3A
:10140C00ABC500F0ACC501F0ADC502F0AEC503F044
:10141C00045009E00332023201320032039E03BC55
:10142C00038EFF0FF6D70501A8C5E1FFA9C5E2FFA2
:10143C0000C0E6FF01C0E6FF020EA825E16E000E1B
:10144C00A921E26E030E046EAFC500F0B0C501F029
:10145C00B1C502F0B2C503F0045009E00332023208
:10146C0001320032039E03BC038EFF0FF6D7050139
:10147C0000C0E6FF01C0E6FF040EA825E16E000ED9
:10148C00A921E26E030E046EB3C500F0B4C501F0E1
:10149C00B5C502F0B6C503F0045009E003320232C0
:1014AC0001320032039E03BC038EFF0FF6D700C03F
:0814BC00E6FF01C0E6FF12008B
:1014C4000050086E0150006E0250016E0350026E0F
:1014D400036A0B6A0C6A9E0E036E0A6A02AE7FEF01
:1014E4000AF0081E001E011E021E082AD8B4002A93
:1014F400D8B4012AD8B4022A0A8E020E0C6E13EC58
:0415040001F01200E0
:101508000B6A0C6A086A0350D8B408EF0BF002C0E3
:101518000AF0028E9E0E035E03AEF8EF0AF0036C2B
:10152800080E035CD8A0C5EF0AF0036E083600C0A9
:1015380008F001C000F002C001F0026A080E035C66
:10154800D8A0C5EF0AF0036E083600C008F001C045
:1015580000F0016A080E035CD8A0C5EF0AF0036E1C
:10156800083600C008F0006A080E035CD8A0C5EF72
:101578000AF0036E0836086A0350D8A4D890D1EF51
:101588000AF00350D8B4D1EF0AF0D89002320132F1
:1015980000320832032EC9EF0AF00BBC08A0E2EFB4
:1015A8000AF0D8A0E2EF0AF0082AD8B4002AD8B482
:1015B800012AD8B4022A02BE0CEF0BF00AAE08EFDB
:1015C8000BF0021E011E001E081E082AD8B4002AAD
:1015D800D8B4012AD8B4022A08EF0BF0026A016ACB
:1015E800006A086A08EF0BF00B800BAE12EF0BF0E5
:1015F800026A0AAE12EF0BF0026E016E006E086E00
:101608000A36023212EF0BF00C6A000E13EF0BF0E1
:10161800010E0C6E000E20DD13EF0BF0FF0E0250D2
:10162800036E0150026E0050016E0850006E1200E9
:10163800A8C5E9FFA9C5EAFFEECF00F0EECF01F09B
:10164800EECF02F0EECF03F000C004F001C005F0C9
:1016580002C006F003C007F042EC03F000C0AAF590
:1016680001C0ABF502C0ACF503C0ADF5040E050131
:10167800A825D96E000EA921DA6EDECF00F0DECFE4
:1016880001F0DECF02F0DECF03F000C004F001C0AD
:1016980005F002C006F003C007F042EC03F0AAC54B
:1016A80004F0ABC505F0ACC506F0ADC507F0D2EC4B
:1016B80003F000C0AAF501C0ABF502C0ACF503C049
:1016C800ADF5080EA825D96E000EA921DA6EDECF79
:1016D80000F0DECF01F0DECF02F0DECF03F000C075
:1016E80004F001C005F002C006F003C007F042ECA8
:1016F80003F0AAC504F0ABC505F0ACC506F0ADC54E
:1017080007F0D2EC03F000C0B8F501C0B9F502C08B
:0A171800BAF503C0BBF5EADC1200CD
:10172200A8C5B8F5A9C5B9F5AAC5BAF5ABC5BBF543
:10173200DBEC06F000C0ADF501C0AEF502C0AFF5BE
:1017420003C0B0F5046A056A066A076AE5EC05F0AB
:10175200010ED8A4000E006E005205E0006A016A74
:10176200026A036AF1D0ADC504F0AEC505F0AFC59B
:1017720006F0B0C507F0000E006E000E016E000EFE
:10178200026E7F0E036EA8EC00F0010ED8B0000EC0
:10179200006E00C0ACF500521AE0ADC504F0AEC553
:1017A20005F0AFC506F0B0C507F0000E006E000EE2
:1017B200016E000E026E7F0E036E88EC02F000C016
:1017C200ADF501C0AEF502C0AFF503C0B0F5ADC5D1
:1017D20000F0AEC501F0AFC502F0B0C503F0ADC573
:1017E20004F0AEC505F0AFC506F0B0C507F042EC97
:1017F20003F000C0B1F501C0B2F502C0B3F503C0F9
:10180200B4F500C0B8F501C0B9F502C0BAF503C01D
:10181200BBF5B90E0501BC6F4A0EBD6F000EBE6F5F
:10182200050EBF6F000EC06F5FEC06F0ADC504F091
:10183200AEC505F0AFC506F0B0C507F042EC03F047
:1018420000C0ADF501C0AEF502C0AFF503C0B0F502
:10185200B1C5B8F5B2C5B9F5B3C5BAF5B4C5BBF5EE
:10186200D10EBC6F4A0EBD6F000EBE6F040EBF6F6D
:10187200000EC06F5FEC06F000C004F001C005F07E
:1018820002C006F003C007F0ADC500F0AEC501F01E
:10189200AFC502F0B0C503F088EC02F000C0ADF5B0
:1018A20001C0AEF502C0AFF503C0B0F50501AC53FF
:1018B2001AE0ADC504F0AEC505F0AFC506F0B0C57F
:1018C20007F0DB0E006E0F0E016E490E026E7F0EE8
:1018D200036E06EC07F000C0ADF501C0AEF502C024
:1018E200AFF503C0B0F5046A056A066A076AA8C5BF
:1018F20000F0A9C501F0AAC502F0ABC503F0A8EC3F
:1019020000F0010ED8B0000E006E00520DE0000E85
:10191200AD19006E000EAE19016E800EAF19026E87
:10192200000EB019036E08D0ADC500F0AEC501F0CF
:10193200AFC502F0B0C503F000C0ADF501C0AEF511
:0A19420002C0AFF503C0B0F51200BB
:10194C0000C008F00150006E016A026A036A0B6A5B
:10195C000C6A016A026A036A960E036E0A6A00AE8A
:10196C00BEEF0CF0081E001E082AD8B4002A0A8EFE
:10197C0000C001F008C000F0086A026A3EEC08F0F2
:02198C00120047
:10198E009BC500F0016A026A036AFF0E0016000E84
:10199E00011600C0A0F501C0A1F57F0E005C026E1D
:1019AE00000E0158036E02C0A0F503C0A1F5800E13
:1019BE000318006E800E005C02E1000E025C22E253
:1019CE0098C504F099C505F09AC506F09BC507F0B9
:1019DE00006A016A026A036AA8EC00F0000ED8B031
:1019EE00010E006E005205E0006A016A026A036A87
:1019FE0058D0000E006E000E016E000E026E7F0EAD
:101A0E00036E4FD0000E006E0501A151005C02E185
:101A1E00A051180809E298C500F099C501F09AC5C1
:101A2E0002F09BC503F03DD098C500F099C501F0BA
:101A3E009AC502F09BC503F060DD3DDD00C09CF54C
:101A4E0001C09DF502C09EF503C09FF598C504F038
:101A5E0099C505F09AC506F09BC507F0A8EC00F0F5
:101A6E00010ED8B0000E006E005213E09CC500F0BF
:101A7E009DC501F09EC502F09FC503F0000E046ED9
:101A8E00000E056E000E066E7F0E076ED2EC03F092
:101A9E0008D09CC500F09DC501F09EC502F09FC503
:041AAE0003F012002F
:101AB200730E0C6E470E0D6E0D2EFED70C2EFCD73C
:061AC2000000000012000C
:0A1AC800050E0D6E0D2EFED7120064
:101AD200020E0C6E080E0D6E0D2EFED70C2EFCD7CC
:041AE20000001200EE
:101AE60098C5B8F599C5B9F59AC5BAF59BC5BBF5BC
:101AF600DBEC06F000C0A4F501C0A5F502C0A6F512
:101B060003C0A7F59CC5B8F59DC5B9F59EC5BAF540
:101B16009FC5BBF5DBEC06F000C004F001C005F084
:101B260002C006F003C007F0A4C500F0A5C501F089
:101B3600A6C502F0A7C503F0A8EC00F0000ED8B0C9
:101B4600010E006E0052D8B489D098C504F099C52C
:101B560005F09AC506F09BC507F09CC500F09DC52B
:101B660001F09EC502F09FC503F088EC02F000C0AC
:101B7600A8F501C0A9F502C0AAF503C0ABF5CEDDF4
:101B860000C0A0F501C0A1F502C0A2F503C0A3F5EF
:101B9600046A056A066A076A98C500F099C501F0E5
:101BA6009AC502F09BC503F0A8EC00F0010ED8B070
:101BB600000E006E005249E0046A056A066A076A6A
:101BC6009CC500F09DC501F09EC502F09FC503F0BF
:101BD600A8EC00F0000ED8B0010E006E00521BE01B
:101BE600A0C500F0A1C501F0A2C502F0A3C503F08F
:101BF600DB0E046E0F0E056E490E066E800E076E26
:101C0600D2EC03F000C0A0F501C0A1F502C0A2F518
:101C160003C0A3F51AD0DB0E046E0F0E056E490E37
:101C2600066E800E076EA0C500F0A1C501F0A2C524
:101C360002F0A3C503F006EC07F000C0A0F501C052
:101C4600A1F502C0A2F503C0A3F5A0C500F0A1C589
:101C560001F0A2C502F0A3C503F079D09CC504F03B
:101C66009DC505F09EC506F09FC507F098C500F016
:101C760099C501F09AC502F09BC503F088EC02F005
:101C860000C0A8F501C0A9F502C0AAF503C0ABF5CE
:101C960045DD000E00180501A06F000E0118A16FAA
:101CA600800E0218A26F000E0318A36F046A056A5D
:101CB600066A076A9CC500F09DC501F09EC502F044
:101CC6009FC503F0A8EC00F0010ED8B0000E006E20
:101CD60000521BE0DB0E046E0F0E056E490E066EFB
:101CE6007F0E076EA0C500F0A1C501F0A2C502F0E7
:101CF600A3C503F006EC07F000C0A0F501C0A1F5EE
:101D060002C0A2F503C0A3F51AD0A0C500F0A1C574
:101D160001F0A2C502F0A3C503F0DB0E046E0F0EA0
:101D2600056E490E066E7F0E076ED2EC03F000C0FC
:101D3600A0F501C0A1F502C0A2F503C0A3F5A0C598
:101D460000F0A1C501F0A2C502F0A3C503F0120080
:101D560098C5E9FF99C5EAFFEECF00F0EECF01F096
:101D6600EECF02F0EECF03F000C004F001C005F0A4
:101D760002C006F003C007F042EC03F000C09EF577
:101D860001C09FF502C0A0F503C0A1F5040E050130
:101D96009825D96E000E9921DA6EDECF00F0DECFDF
:101DA60001F0DECF02F0DECF03F000C004F001C088
:101DB60005F002C006F003C007F042EC03F09EC532
:101DC60004F09FC505F0A0C506F0A1C507F0D2EC4A
:101DD60003F000C09EF501C09FF502C0A0F503C048
:101DE600A1F5080E9825D96E000E9921DA6EDECF80
:101DF60000F0DECF01F0DECF02F0DECF03F000C050
:101E060004F001C005F002C006F003C007F042EC82
:101E160003F09EC504F09FC505F0A0C506F0A1C558
:101E260007F0D2EC03F000C09AF501C09BF502C0A2
:101E36009CF503C09DF500C0B8F501C0B9F502C018
:101E4600BAF503C0BBF57AEC08F000C09EF501C0F8
:101E56009FF502C0A0F503C0A1F59EC59AF59FC5E2
:101E66009BF5A0C59CF5A1C59DF598C5E9FF99C54B
:101E7600EAFFEECF00F0EECF01F0EECF02F0EECFAC
:101E860003F09EC504F09FC505F0A0C506F0A1C5E8
:101E960007F088EC02F098C5E1FF99C5E2FF00C0A3
:101EA600E6FF01C0E6FF02C0E6FF03C0E6FF040E40
:101EB600050198259E6F000E99219F6F9EC5E9FF2B
:101EC6009FC5EAFFEECF00F0EECF01F0EECF02F0B5
:101ED600EECF03F09AC504F09BC505F09CC506F04D
:101EE6009DC507F088EC02F09EC5E1FF9FC5E2FFA5
:101EF60000C0E6FF01C0E6FF02C0E6FF03C0E6FF42
:101F0600080E050198259E6F000E99219F6F9EC5AC
:101F1600E9FF9FC5EAFFEECF00F0EECF01F0EECF6E
:101F260002F0EECF03F09AC504F09BC505F09CC500
:101F360006F09DC507F088EC02F09EC5E1FF9FC53F
:101F4600E2FF00C0E6FF01C0E6FF02C0E6FF03C0F5
:041F5600E6FF120090
:101F5A000B6A0350D8B4F3EF0FF002500A6E028EE8
:101F6A008E0E035E03AEF7EF0FF0036C080E035CF0
:101F7A00D8A0D2EF0FF0036E013602C001F0026A58
:101F8A00080E035CD8A0D2EF0FF0036E0136016A87
:101F9A000350D8A4D890DCEF0FF00350D8B4DCEF8C
:101FAA000FF0D89002320132032ED6EF0FF00BBC9D
:101FBA0001A0E9EF0FF0D8A0E9EF0FF0012AD8B499
:101FCA00022A02BE06EF10F00AAE0CEF10F0021E53
:101FDA00011E012AD8B4022A0CEF10F0026A016A23
:101FEA000CEF10F00B800BAE10EF10F0026A0AAE85
:101FFA0010EF10F0FF0E026E016E0A36023210EF79
:10200A0010F0010E0C6E30EC08F012EF10F0000E1A
:10201A000C6E12EF10F0FF0E0C6E0150006E0250A3
:04202A00016E120031
:10202E00A6A202D00000FCD7A69C98C5A9FF99C510
:10203E00A8FFA69EA684F2CF00F0F29E550EA76EC4
:10204E00AA0EA76EA68200BE02D0F29E01D0F28E1C
:04205E00A694120032
:1020620098C5A8F599C5A9F50501AA6B86EC09F0F2
:1020720098C5E9FF99C5EAFFEECF00F0EECF01F077
:1020820064DC00C09AF501C09BF502C09CF503C058
:102092009DF5020E05019825E96E000E9921EA6E62
:1020A200EECF00F0EECF01F050DC00C09EF501C093
:1020B2009FF502C0A0F503C0A1F5040E9825E96EB4
:1020C200000E9921EA6EEECF00F0EECF01F03DDC7A
:1020D20000C0A2F501C0A3F502C0A4F503C0A5F596
:1020E2009A0EA86F050EA96F1CEC0BF000C004F04D
:1020F20001C005F002C006F003C007F0000E006E3A
:10210200400E016E1C0E026E890E036EA8EC00F0EA
:10211200010ED8B0000E006E005203E0010E006EF8
:0821220002D0010E006E120054
:10212A000101926B936B800E9319006E800E005C16
:10213A0002E1090E925D09E292C198F50501996BD7
:10214A0071DF0101924B932BEED70A0E0501986FAE
:10215A00996B68DF0A0E0501986F996B63DF0501B9
:10216A00986B52C5E9FF53C5EAFFEECF00F0FF0EA8
:10217A000014996F57DF010E0501986F52C5E9FFE8
:10218A0053C5EAFFEECF03F0EECF04F004C000F02F
:10219A00000E04BEFF0E016EFF0E0014996F42DF9F
:1021AA00020E0501986F020E5225E96E000E5321A8
:1021BA00EA6EFF0EEE14996F35DF030E0501986F74
:1021CA00020E5225E96E000E5321EA6EEECF03F09D
:1021DA00EECF04F004C000F0000E04BEFF0E016E44
:1021EA00FF0E0014996F1EDF040E0501986F040E8E
:1021FA005225E96E000E5321EA6EFF0EEE14996F16
:10220A0011DF050E0501986F040E5225E96E000EC6
:10221A005321EA6EEECF03F0EECF04F004C000F0D3
:10222A00000E04BEFF0E016EFF0E0014996FFADE57
:10223A00060E0501986F54C5E9FF55C5EAFFEECFB2
:10224A0099F5F0DE070E0501986F54C5E9FF55C5EB
:10225A00EAFFEECF03F0EECF04F004C000F0000E68
:10226A0004BEFF0E016EFF0E0014996FDBDE080E2E
:10227A000501986F020E5425E96E000E5521EA6E8B
:10228A00EECF99F5CFDE090E0501986F020E54259F
:10229A00E96E000E5521EA6EEECF03F0EECF04F0A0
:1022AA0004C000F0000E04BEFF0E016EFF0E001403
:1022BA00996FB8DE0A0E0501986F040E5425E96E6F
:1022CA00000E5521EA6EEECF99F5ACDE0B0E050134
:1022DA00986F040E5425E96E000E5521EA6EEECF72
:1022EA0003F0EECF04F004C000F0000E04BEFF0EAF
:0C22FA00016EFF0E0014996F95DE1200BB
:102306000501886B896B8A6B8B6B000E8C6F000ED8
:102316008D6F000E8E6F7F0E8F6F906B916B926B31
:10232600936B860EA86F010EA96FAA6B86EC09F057
:10233600800E0501A86F010EA96F010EAA6F86EC2B
:1023460009F080C100F081C101F0A6EC0CF000C0DC
:1023560052F501C053F502C054F503C055F582C1CC
:1023660000F083C101F0A6EC0CF000C056F501C0E8
:1023760057F502C058F503C059F584C100F085C170
:1023860001F0A6EC0CF000C05AF501C05BF502C0E6
:102396005CF503C05DF586C100F087C101F0A6ECCF
:1023A6000CF000C05EF501C05FF502C060F503C029
:1023B60061F588C100F089C101F0A6EC0CF000C0FF
:1023C60062F501C063F502C064F503C065F58AC114
:1023D60000F08BC101F0A6EC0CF000C066F501C060
:1023E60067F502C068F503C069F58CC100F08DC1C0
:1023F60001F0A6EC0CF000C004F001C005F002C02C
:1024060006F003C007F052C500F053C501F054C5ED
:1024160002F055C503F006EC07F000C094F501C0C4
:1024260095F502C096F503C097F501018C51545DF0
:10243600006E8D515559016EA6EC0CF000C004F0EB
:1024460001C005F002C006F003C007F094C500F015
:1024560095C501F096C502F097C503F088EC02F029
:10246600000E046E000E056E000E066E800E076EE0
:1024760042EC03F0000E046E000E056E000E066EB2
:102486007F0E076E06EC07F000C052F501C053F54B
:1024960002C054F503C055F58EC100F08FC101F09E
:1024A600A6EC0CF000C004F001C005F002C006F076
:1024B60003C007F056C500F057C501F058C502F035
:1024C60059C503F006EC07F000C094F501C095F578
:1024D60002C096F503C097F501018E51565D006E58
:1024E6008F515759016EA6EC0CF000C004F001C0E4
:1024F60005F002C006F003C007F094C500F095C5CC
:1025060001F096C502F097C503F088EC02F0000EC4
:10251600046E000E056E000E066E800E076E42EC0F
:1025260003F0000E046E000E056E000E066E7F0EA2
:10253600076E06EC07F000C056F501C057F502C05D
:1025460058F503C059F590C100F091C101F0A6EC11
:102556000CF000C004F001C005F002C006F003C094
:1025660007F05AC500F05BC501F05CC502F05DC519
:1025760003F006EC07F000C094F501C095F502C023
:1025860096F503C097F501019051585D006E915183
:102596005959016EA6EC0CF000C004F001C005F01C
:1025A60002C006F003C007F094C500F095C501F01F
:1025B60096C502F097C503F088EC02F0000E046E93
:1025C600000E056E000E066E800E076E42EC03F0DE
:1025D600000E046E000E056E000E066E7F0E076E70
:1025E60006EC07F000C05AF501C05BF502C05CF5C9
:1025F60003C05DF55E0E0501986F050E996FABEC95
:102606000EF056C500F057C501F058C502F059C581
:1026160003F066C504F067C505F068C506F069C530
:1026260007F042EC03F000C094F501C095F502C036
:1026360096F503C097F55AC500F05BC501F05CC579
:1026460002F05DC503F062C504F063C505F064C51C
:1026560006F065C507F042EC03F000C004F001C0C7
:1026660005F002C006F003C007F094C500F095C55A
:1026760001F096C502F097C503F006EC07F000C01E
:102686006AF501C06BF502C06CF503C06DF55AC55D
:1026960000F05BC501F05CC502F05DC503F05EC5E8
:1026A60004F05FC505F060C506F061C507F042ECB1
:1026B60003F000C094F501C095F502C096F503C07D
:1026C60097F552C500F053C501F054C502F055C543
:1026D60003F066C504F067C505F068C506F069C570
:1026E60007F042EC03F000C004F001C005F002C0A0
:1026F60006F003C007F094C500F095C501F096C535
:1027060002F097C503F006EC07F000C06EF501C0B5
:102716006FF502C070F503C071F552C500F053C5E0
:1027260001F054C502F055C503F062C504F063C557
:1027360005F064C506F065C507F042EC03F000C07D
:1027460094F501C095F502C096F503C097F556C5F8
:1027560000F057C501F058C502F059C503F05EC533
:1027660004F05FC505F060C506F061C507F042ECF0
:1027760003F000C004F001C005F002C006F003C07B
:1027860007F094C500F095C501F096C502F097C50F
:1027960003F006EC07F000C072F501C073F502C045
:1027A60074F503C075F562C504F063C505F064C52C
:1027B60006F065C507F042EC03F000C094F501C0D1
:1027C60095F502C096F503C097F566C500F067C596
:1027D60001F068C502F069C503F06EC504F06FC567
:1027E60005F070C506F071C507F042EC03F000C0B5
:1027F60004F001C005F002C006F003C007F094C55E
:1028060000F095C501F096C502F097C503F006ECF9
:1028160007F000C076F501C077F502C078F503C071
:1028260079F566C500F067C501F068C502F069C5AF
:1028360003F06AC504F06BC505F06CC506F06DC5FE
:1028460007F042EC03F000C094F501C095F502C014
:1028560096F503C097F55EC500F05FC501F060C54B
:1028660002F061C503F072C504F073C505F074C5C6
:1028760006F075C507F042EC03F000C004F001C095
:1028860005F002C006F003C007F094C500F095C538
:1028960001F096C502F097C503F006EC07F000C0FC
:1028A6007AF501C07BF502C07CF503C07DF55EC5F7
:1028B60000F05FC501F060C502F061C503F06EC5AA
:1028C60004F06FC505F070C506F071C507F042EC5F
:1028D60003F000C094F501C095F502C096F503C05B
:1028E60097F562C500F063C501F064C502F065C5E1
:1028F60003F06AC504F06BC505F06CC506F06DC53E
:1029060007F042EC03F000C004F001C005F002C07D
:1029160006F003C007F094C500F095C501F096C512
:1029260002F097C503F006EC07F000C07EF501C083
:102936007FF502C080F503C081F5760E0501986F1C
:10294600050E996FABEC0EF06A0E0501986F050E39
:10295600996FABEC0EF06AC500F06BC501F06CC563
:1029660002F06DC503F088C504F089C505F08AC577
:1029760006F08BC507F042EC03F000C094F501C0E9
:1029860095F502C096F503C097F56EC500F06FC5C4
:1029960001F070C502F071C503F08CC504F08DC559
:1029A60005F08EC506F08FC507F042EC03F094C51E
:1029B60004F095C505F096C506F097C507F0D2EC6C
:1029C60003F000C094F501C095F502C096F503C06A
:1029D60097F572C500F073C501F074C502F075C5B0
:1029E60003F090C504F091C505F092C506F093C5B5
:1029F60007F042EC03F094C504F095C505F096C5C2
:102A060006F097C507F0D2EC03F000C084F501C0CC
:102A160085F502C086F503C087F576C500F077C553
:102A260001F078C502F079C503F088C504F089C5C0
:102A360005F08AC506F08BC507F042EC03F000C02E
:102A460094F501C095F502C096F503C097F57AC5D1
:102A560000F07BC501F07CC502F07DC503F08CC596
:102A660004F08DC505F08EC506F08FC507F042EC63
:102A760003F094C504F095C505F096C506F097C514
:102A860007F0D2EC03F000C094F501C095F502C042
:102A960096F503C097F57EC500F07FC501F080C5A9
:102AA60002F081C503F090C504F091C505F092C50A
:102AB60006F093C507F042EC03F094C504F095C503
:102AC60005F096C506F097C507F0D2EC03F084C56D
:102AD60098F585C599F586C59AF587C59BF500C015
:102AE6009CF501C09DF502C09EF503C09FF573ECF1
:102AF6000DF0000E046E000E056E340E066E860E88
:102B0600076E42EC03F0560E046E0E0E056E490E6D
:102B1600066E800E076E88EC02F000C098F501C0C4
:102B260099F502C09AF503C09BF5C7EC0CF0ADEC25
:102B36000FF000C082F501C083F5800E0118026E09
:102B4600800E025C02E1000E005C05E2680E0501E3
:102B56008227010E832382C500F083C501F012008F
:102B6600220E0C6E086A096A0A6A0B6A0C06D8B449
:102B76001FD0D8900B320A320932083203320232A1
:102B860001320032D8A0F2D70C06D8B409D00450CE
:102B960008260550092206500A2207500B22EAD7BA
:102BA600045008260550092206500A2207500B2217
:022BB60012000B
:102BB800050152BF02D08A9601D08A8652BD02D042
:102BC8008A9401D08A8452BB02D08A9201D08A8228
:102BD80052B902D08A9001D08A80010177B102D01F
:102BE8008A8801D08A988A8A64EC0DF08A9A05014D
:102BF80052B702D08A9601D08A8652B502D08A94FA
:102C080001D08A8452B302D08A9201D08A8252B10A
:102C180002D08A9001D08A80010177B102D08A88D7
:102C280001D08A988A8A64EC0DF08A9A77A103D039
:0C2C380059EC0DF002D069EC0DF0120018
:102C4400800E05015319006E800E005C02E1000E37
:102C5400525D08E252510008006E53C501F0000EA7
:0E2C6400015604D052C500F053C501F0120015
:102C7200800E0501A86F010EA96F010EAA6F86ECE6
:102C820009F09C0E0101546FFF0E556F640E8C6F9C
:102C9200000E8D6F9C0E566FFF0E576F640E8E6F77
:102CA200000E8F6F9C0E586FFF0E596F640E906F5F
:102CB200000E916F0501586B596B5751595D02E136
:102CC2005651585DD8B06AD0860E986F010E996F32
:102CD20031EC10F000525EE0800E0501A86F010E8B
:102CE200A96F010EAA6F86EC09F0800E010181190D
:102CF200006E800E5519005C02E15451805D04E3C0
:102D020080C154F181C155F1800E8D19006E800E83
:102D12008119005C02E180518C5D04E380C18CF179
:102D220081C18DF1800E8319006E800E5719005CEF
:102D320002E15651825D04E382C156F183C157F12B
:102D4200800E8F19006E800E8319005C02E18251A1
:102D52008E5D04E382C18EF183C18FF1800E8519ED
:102D6200006E800E5919005C02E15851845D04E343
:102D720084C158F185C159F1800E9119006E800EFF
:102D82008519005C02E18451905D04E384C190F1F5
:0E2D920085C191F10501584B592B8FD71200C6
:102DA000860E0501986F010E996F31EC10F00052FC
:102DB00012E08AC152F58BC153F544DF800E030A3D
:102DC000026E800E0118025C02E10050840803E2EA
:082DD000020E0101946F1200D4
:102DD8004CC5E9FF4DC5EAFFEE5005014E1905E166
:102DE8004CC500F04DC501F010D04CC500F04DC5E4
:102DF80001F04C4B4D2B00C0E9FF01C0EAFFEECFBC
:0C2E080000F00052E5E1006A016A1200CF
:102E140083EC11F000C04AF101C04BF101014C51A7
:102E2400005C0501526F01014D5101580501536FBA
:102E340007DF800E026E800E0118025C02E1005072
:102E4400020835E24AC14CF14BC14DF1800E01013B
:102E54004B19006E800E005C02E15A0E4A5D06E2D8
:102E64000E0E4A254E6F010E4B214F6F800E4B19EB
:102E7400006E800E005C02E15A0E4A5D18E35A0EA1
:102E84004A5D016E000E4B59026E01C04EF102C044
:102E94004FF1800E0218006E800E010A005C02E100
:102EA400680E015C04E3680E4E5F010E4F5B120076
:0E2EB400ACB202D00000FCD74CC5ADFF12003E
:0E2EC200010177914CC552F576DE7781120042
:102ED0004CC502F04DC503F002C000F003C001F084
:102EE000024A032A00C0E9FF01C0EAFFEE5201E0F6
:102EF000F3D705014C51025C006E4D510358016E31
:0A2F0000010E005E000E015A1200DF
:102F0A0050C500F005015007005228E04CC5E9FF02
:102F1A004DC5EAFFEE50000A0CE04CC5E9FF4DC56D
:102F2A00EAFF4EC5D9FF4FC5DAFFEE50DE1801E1C0
:102F3A000FD04CC5E9FF4DC5EAFF4EC5D9FF4FC5B5
:102F4A00DAFFDE50EE5C006E016A000E015A08D00C
:102F5A0005014C4B4D2B4E4B4F2BD2D7006A016AC1
:022F6A00120053
:0A2F6C009494BA840C0EBD121200FA
:102F7600800E05014E6F3E0E4F6F000E506F516F63
:102F8600800E006E3E0E016E000E026E000E036E87
:102F96004CC504F04DC505F0000E066E076EE0DD6B
:102FA60000C04EF501C04FF502C050F503C051F503
:102FB600000E035C08E1000E025C05E1020E015CF6
:102FC60002E1940E005C01E231D0940E4E5F020ED7
:102FD6004F5B000E505B515B050E006E005007E024
:102FE600513350334F334E33519FFF0FF8D74EC5F1
:102FF60000F04FC501F050C502F051C503F0010EB7
:103006004E5F000E4F5B505B515B0050011002108B
:1030160003100CE0000000000000000000000000AB
:0E30260000000000000000000000E1D71200D2
:0A3034009484BA94F00EBD16120049
:0A303E009482BA94F00E6616120098
:10304800540E0501526F010E536F8C0E546F010E12
:10305800556FFA0E566F000E576F07DE540E526FFB
:10306800010E536F8C0E546F010E556F95EC10F0D6
:063078000101946B12003F
:0A307E009492BA840C0E6612120040
:1030880010D0800E0501476F1AD0C00E476F17D0B9
:10309800940E476F14D0D40E476F11D0800E476F2F
:1030A8000ED005014751010AECE04751020AEDE054
:1030B8004751030AEDE04751040AEDE0EFD7480510
:1030C800006E4751002600C047F500C052F570DD7C
:1030D800779105014B6B4B514925E96E000E4A214A
:1030E800EA6EEE520CE04B514925E96E000E4A217A
:1030F800EA6EEECF4CF5E1DE05014B2BECD7010172
:0431080077811200B9
:10310C0008D082DE11D046DE0FD098DF0DD0946B44
:10311C000BD001019451000AF4E09451010AF3E040
:0A312C009451020AF2E0F3D71200FA
:103136000B6A0C6A0A6A0350D8B4E5EF18F0028EDF
:103146008E0E035E03BEADEF18F0D8B4ADEF18F0E7
:10315600E9EF18F0036C080E035CD8A0C4EF18F072
:10316600036E013602C001F0026A080E035CD8A0A5
:10317600C4EF18F00136016A0350D8A4D890CEEFF8
:1031860018F00350D8B4CEEF18F0D89002320132BE
:10319600032EC8EF18F00BBC01A0DBEF18F0D8A087
:1031A600DBEF18F0012AD8B4022A02BEF8EF18F0B5
:1031B6000AAEFEEF18F0021E011E012AD8B4022A3A
:1031C600FEEF18F0026A016AFEEF18F00B800BAEF4
:1031D60002EF19F0026A0AAE02EF19F0FF0E026E54
:1031E600016E0A36023202EF19F0010E0C6E30EC57
:1031F60008F004EF19F0000E0C6E04EF19F0FF0E44
:0C3206000C6E0150006E0250016E1200B0
:0A32120082808390899A8484120060
:10321C000050086E0150006E016A026A036A0B6A64
:10322C000C6A960E036E0A6A00C001F008C000F02A
:0A323C00086A026A3EEC08F0120076
:10324600000E0501481902E1000E471934E047C592
:10325600E9FF48C5EAFFEE522EE049C54CF54AC5DE
:103266004DF533DE00C050F547C54CF548C54DF564
:1032760049C54EF54AC54FF545DE000E011802E177
:10328600000E001805E147C500F048C501F015D04D
:10329600010E050147254C6F000E48214D6F49C5AB
:1032A600E9FF4AC5EAFFEECF4EF593DD00C047F5CC
:0C32B60001C048F5C5D7006A016A12008B
:1032C200520E0B6E2B0E0C6E000E0D6E0D2EFED7D7
:0C32D2000C2EFCD70B2EFAD700001200C7
:1032DE0046DECEDECFC04CF5D0C04DF545DEA3DECA
:0432EE00A7DE120045
:1032F20005014A6B47C5E9FF48C5EAFFEECF49F52C
:103302004951000A0EE049C54CF5D3DD05014A2BAF
:103312004A514725E96E000E4821EA6EEECF49F583
:04332200EFD71200CF
:10332600086A096A100E0C6E013408360936045014
:10333600085E0550D8A0053C095ED8B007D00450F9
:1033460008260550D8B0053C0926D8900036013627
:063356000C2EEAD7120064
:10335C000B6A0A6A096A00500402F4CF09F0F3CF31
:10336C0008F001500502F4CF0BF0F3CF0AF0005037
:10337C000502F3500926F4500A22E86A0B22015088
:10338C000402F3500926F4500A22E86A0B2208C002
:10339C0000F009C001F00AC002F00BC003F01200EB
:1033AC0047C502F048C503F04AC500F04BC501F013
:1033BC00010E05014A5F000E4B5B0050011009E045
:1033CC0002C0E1FF03C0E2FF49C5E6FF024A032A3F
:0C33DC00EBD747C500F048C501F0120017
:0A33E80082908380898A8494120089
:0A33F2000D0E05014C6F5DDD1200A9
:1033FC00090E0501456F050E466F45C503F046C520
:10340C0004F0454B462B06C500F007C501F008C576
:10341C0002F0010E0627000E0723082300C0F6FF5A
:10342C0001C0F7FF02C0F8FF0900F5CF00F003C0A0
:10343C00E1FF04C0E2FF00C0E6FF03C0E9FF04C0E7
:10344C00EAFFEE5201E0D9D7090E476F050E486F1F
:04345C004ADF120031
:1034600004019C53D8B426D2010E0501526FDCEC46
:1034700015F0010E0501476F010E486FF00E496F00
:10348000000E4A6F01DEF29E04019C6B010E9B6FE1
:103490009D0E0501476F040E486F3A0E496F010EED
:1034A0004A6FD1DE0050011021E0010E0501526F7C
:1034B000DCEC15F0010E0501476F010E486F3F0E61
:1034C000496F010E4A6FE0DDFCDE010E0501526F0F
:1034D000DCEC15F0010E0501476F010E486F2D0E53
:1034E000496F010E4A6FD0DD04019B6B9D0E0501F3
:1034F000476F040E486F140E496F010E4A6FA3DE2A
:103500000050011011E0010E0501526FDCEC15F0C6
:10351000010E0501476F010E486F1F0E496F010E26
:103520004A6FB2DD04019B6B9D0E0501476F040ECF
:10353000486FE70E496F000E4A6F85DE005001109C
:1035400014E0010E0501526FDCEC15F0010E0501CF
:10355000476F010E486F700E496F000E4A6F94DD81
:10356000010E0001796F04019B6B9D0E0501476FF1
:10357000040E486F7A0E496F000E4A6F64DE0050E9
:10358000011067E0010E00016F6F300E0401A65DAF
:10359000006E016A000E015A640E046E000E056E84
:1035A000DDDE00C006F501C007F5300EA75D006E38
:1035B000016A000E015A0A0E046E000E056ECEDE80
:1035C0000050050106250101506F0150050107213A
:1035D0000101516F300E0401A85D006E016A000EFA
:1035E000015A00500101502701505123300E0401AF
:1035F000AC5D006E016A000E015A640E046E000E8E
:10360000056EACDE00C006F501C007F5300EAD5DFD
:10361000006E016A000E015A0A0E046E000E056E5D
:103620009DDE0050050106250101526F0150050184
:1036300007210101536F300E0401AE5D006E016A77
:10364000000E015A0050010152270150532304017A
:103650009B6B9D0E0501476F040E486FA70E496FC7
:10366000000E4A6FF0DD0050011014E0010E05015C
:10367000526FDCEC15F0010E0501476F010E486F2B
:10368000B10E496F000E4A6FFFDC020E0001796F28
:1036900004019B6B9D0E0501476F040E486FBB0E26
:1036A000496F000E4A6FCFDD0050011014E0010E8B
:1036B0000501526FDCEC15F0010E0501476F010E9C
:1036C000486F810E496F000E4A6FDEDC040E000168
:1036D000796F04019B6B9D0E0501476F040E486FC7
:1036E0008B0E496F000E4A6FAEDD0050011014E0E2
:1036F000010E0501526FDCEC15F0010E0501476F5C
:10370000010E486F990E496F000E4A6FBDDC030E23
:103710000001796F04019B6B9D0E0501476F040E3C
:10372000486F630E496F000E4A6F8DDD0050011027
:1037300016E0010E0501526FDCEC15F0010E0501DB
:10374000476F010E486F3B0E496F000E4A6F9CDCBD
:10375000020E04019B6F82908390898A84849D0E5F
:103760000501476F040E486F3E0E496F000E4A6F09
:103770006ADD0050011016E0010E0501526FDCEC0D
:1037800015F0010E0501476F010E486F4C0E496F91
:10379000000E4A6F79DC020E04019B6F82808380E9
:1037A000899A84949D0E0501476F040E486F190E87
:1037B000496F000E4A6F47DD0050011016E0010E00
:1037C0000501526FDCEC15F0010E0501476F010E8B
:1037D000486F270E496F000E4A6F56DC020E040137
:1037E0009B6F82808390899A84849D0E0501476F28
:1037F000040E486F2C0E496F000E4A6F24DD0050F6
:10380000011016E0010E0501526FDCEC15F0010EFF
:103810000501476F010E486F510E496F000E4A6F48
:1038200033DC020E04019B6F82908380898A84942A
:1038300004019B51010A2EE1010E0501526FDCECDF
:1038400015F0010E0501476F010E486F570E496FC5
:10385000000E4A6F19DCC00E0501526FDCEC15F04A
:103860000001616B626B9D0E6125E96E040E6221A1
:10387000EA6EEE50000A0EE09D0E6125E96E040E20
:103880006221EA6EEECF4CF561EC17F00001614B5E
:10389000622BE9D70001616B626B9D0E0501476FDA
:1038A000040E486F496B640E4A6F000E4B6F7EDD4D
:0A38B000F28E02D004019B6B12009F
:0C38BA0006C547F507C548F517DD1200EC
:1038C60005010A6B050E0A5D0AE20A510825E16E3A
:1038D600000E0921E26E200EE66E0A2BF3D70A517E
:1038E6000825E16E000E0921E26EE66A0A070A5112
:1038F60008250B6F000E09210C6F0A0E046E000ED0
:10390600056E06C500F007C501F00ADD08C000F027
:1039160009C001F0300E00260BC5E1FF0CC5E2FF21
:1039260000C0E6FF0A0E046E000E056E06C500F026
:1039360007C501F0F5DC00C006F501C007F5000E6D
:10394600011802E1000E001801E102D00A07CFD7E4
:0239560012005D
:1039580006C50CF507C50DF508C50EF509C50FF523
:1039680016D0B40E05010A6F000E0B6F2AD00E0E8A
:103978000A6F010E0B6F25D0680E0A6F010E0B6FD0
:1039880020D0C20E0A6F010E0B6F1BD047D2050163
:103998000751010A02E1630E0619E3E0000E071958
:1039A80002E1550E0619E3E0000E071902E1AF0E19
:1039B8000619E2E00751010A02E1090E0619E1E0E1
:1039C800E5D70101946B86EC18F04EC110F54FC194
:1039D80011F505010B51010A02E1C20E0A19010E87
:1039E800D8A4000E016E000E0B1902E15A0E0A1936
:1039F800010ED8A4000E006E00500112800E0101C5
:103A08004F19006E800E005C02E15A0E4E5D010EE9
:103A1800D8B0000E006E015000160AE0680E4E275E
:103A2800010E4F23C20E05010A6F010E0B6F46D11E
:103A380005010B51010A02E1C20E0A19010ED8A4B0
:103A4800000E016E000E0B1902E15A0E0A19010E42
:103A5800D8A4000E006E0050011201014F5105015B
:103A6800095D04E101014E510501085D010ED8B060
:103A7800000E006E0150001605E0C20E0A6F010E1E
:103A88000B6F1CD10B51010A02E1C20E0A19010E7B
:103A9800D8A4000E016E000E0B1902E15A0E0A1985
:103AA800010ED8A4000E006E00500110026E800EA8
:103AB80001014F19016E800E015C02E15A0E4E5D44
:103AC800000ED8B0010E016E000E006E010E005CF3
:103AD80002E1090E015C010ED8B0000E006E025022
:103AE800001606E05A0E05010A6F000E0B6FE6D0AD
:103AF80005010B51010A02E10E0E0A19010ED8A4A4
:103B0800000E016E800E01014F19006E800E005CE0
:103B180002E15A0E4E5D010ED8B0000E006E015043
:103B280000160AE0680E4E27010E4F23BD0E050150
:103B3800066F010E076FC2D005010B51010A02E1A1
:103B48000E0E0A19010ED8A4000E016E01014F5184
:103B580005010B5D04E101014E5105010A5D010EED
:103B6800D8B0000E006E0150001605E0BD0E066FBD
:103B7800010E076FA3D00B51010A02E10E0E0A19BC
:103B8800010ED8A4000E026E0B5101014F5D04E135
:103B980005010A5101014E5D010ED8B0000E016EFB
:103BA800000E006E05010951005C02E10851015C3C
:103BB800000ED8B0010E006E0250001605E0550E3A
:103BC800066F000E076F7AD00B51010A02E1680EEA
:103BD8000A19010ED8A4000E016E01014F5105010A
:103BE800075D04E101014E510501065D000ED8B0E4
:103BF800010E006E0150001603E00A6B0B6B5ED0DD
:103C0800000E0B1902E1000E0A19010ED8A4000ECD
:103C1800016E01014F510501075D04E101014E519B
:103C28000501065D010ED8B0000E006E01500016A9
:103C380005E0680E0A6F010E0B6F40D0000E0B19DD
:103C480002E1B40E0A19010ED8A4000E016E01019A
:103C58004F510501075D04E101014E510501065D63
:103C6800010ED8B0000E006E0150001605E06D0E72
:103C78000E6F010E0F6F22D0000E0B1902E1B40E69
:103C88000A19010ED8A4000E016E095101014F5DF9
:103C980004E10501085101014E5D010ED8B0000E86
:103CA800006E015000160AE06D0E05010E6F010E40
:103CB8000F6F680E01014E27010E4F2305010B51AE
:103CC80001014F5D04E105010A5101014E5D010E3C
:103CD800D8B0000E016E4F510501095D04E10101E4
:103CE8004E510501085D010ED8B0000E006E01505E
:103CF800001629E0085101014E5D006E05010951C9
:103D080001014F59016E0EEC19F0210E046EB00E30
:103D1800056E2E0E066E810E076E42EC03F0000E45
:103D2800046E000E056E480E066E840E076ED2EC09
:103D380003F09BEC18F000C0CFF001C0D0F0F4EC19
:103D480019F06FEC19F00B5101014F5D04E1050109
:103D58000A5101014E5D000ED8B0010E016E050139
:103D6800075101014F5D04E10501065101014E5D56
:103D7800010ED8B0000E006E015000162AE00501B1
:103D88000A5101014E5D006E05010B5101014F59A9
:103D9800016E0EEC19F0210E046EB00E056EAE0E1B
:103DA800066E810E076E42EC03F0000E046E000EE4
:103DB800056E7A0E066E880E076ED2EC03F09BEC49
:103DC80018F000C0CFF001C0D0F009EC19F06FEC8A
:103DD80019F0190E0B6E5A0E0C6EB10E0D6E050110
:103DE8000D2EFDD70C2EFBD70B2EF9D700000000A7
:103DF8000F51115D02E10E51105D010ED8B0000E99
:103E0800016E11510D5D02E110510C5D010ED8B02B
:0E3E1800000E006E01500016D8B4D3D5120073
:0A3E260082908390898A8484120040
:103E30000001D16BD26B9D9AA38AF28EF28CAB9269
:103E4000AB94010E0501526FDCEC15F0010E05017B
:103E5000476F010E486FD30E496F000E4A6F44EC56
:103E600018F00001E651000A01E1FBD7A39AF29E87
:103E7000F29CE66B9B0E0501476F010E486FDF0E4B
:103E8000496F000E4A6F23EC19F000C099F101C090
:103E90009AF1000E011802E1000E0018D8B48FD07C
:103EA000070E01019925E96E000E9A21EA6EEE5087
:103EB0002C0AD8B484D00A0E9925E96E000E9A21F6
:103EC000EA6E300EEE5C006E016A000E015A640E5E
:103ED000046E000E056EAEEC19F000C006F501C0D0
:103EE00007F50C0E9925E96E000E9A21EA6E300E48
:103EF000EE5C006E016A000E015A0A0E046E000E9E
:103F0000056EAEEC19F00050050106250101956F14
:103F10000150050107210101966F0D0E9925E96EEB
:103F2000000E9A21EA6E300EEE5C006E016A000E01
:103F3000015A0050952701509623170E9925E96ED6
:103F4000000E9A21EA6E300EEE5C006E016A000EE1
:103F5000015A640E046E000E056EAEEC19F000C03E
:103F600006F501C007F5190E9925E96E000E9A2194
:103F7000EA6E300EEE5C006E016A000E015A0A0E07
:103F8000046E000E056EAEEC19F00050050106251A
:103F90000101976F0150050107210101986F1A0E69
:103FA0009925E96E000E9A21EA6E300EEE5C006EE5
:103FB000016A000E015A0050972701509823000112
:0C3FC000D16BD26B9D8AF28EF28C120045
:083FCC00676A6698669A12000C
:103FD400BB50010F006E016A000E012202C504F0FD
:103FE400000E056EAEEC19F0060E026E00C004F071
:103FF40001C005F0025005E005320432059EFF0FB2
:10400400FAD7040E016E04C000F0015004E000363B
:104014000090FF0FFBD7300E0014036E04C000F0B5
:1040240005C001F001320032019E01320032019ECE
:0E40340000C0BEFF0F0EBD160350BD121200DD
:10404200BB50010F006E016A000E012202C504F08E
:10405200000E056EAEEC19F0060E026E00C004F002
:1040620001C005F0025005E005320432059EFF0F43
:10407200FAD7040E016E04C000F0015004E00036CD
:104082000090FF0FFBD7300E0014036E04C000F047
:1040920005C001F001320032019E01320032019E60
:0E40A20000C067FF0F0E661603506612120074
:0840B000BE6ABD98BD9A120022
:1040B800B40E0101786F2E0E796F4C0E7A6F050ED3
:1040C8007B6FA20E7C6F450E7D6F000E7E6F000E1B
:1040D8007F6FFF0E6E6FFF0E6F6F000E706F000E1A
:1040E800716FFF0E726FFF0E736F000E746F000E0C
:1040F800756FAC8A900EAB6E948E949C9EAA03D07A
:08410800AECF00F0FBD712005E
:10411000FF0E0101786FFF0E796FFF0E7A6FFF0EB1
:104120007B6FB40E7C6F450E7D6F000E7E6F000EB0
:104130007F6FFF0E6E6FFF0E6F6F000E706F000EC1
:10414000716FFF0E726FFF0E736F000E746F000EB3
:10415000756F728A900E716E958E959CA4AA03D08D
:0841600074CF00F0FBD7120040
:10416800939A939893909392939493968A9A8A9811
:104178008A968A948A928A9059EC0DF059EC0DF03F
:1041880059EC0DF08A828A808A8A64EC0DF08A9A4A
:1041980059EC0DF08A8A64EC0DF08A9A59EC0DF00E
:1041A8008A8A64EC0DF08A9A59EC0DF08A908A8A12
:1041B80064EC0DF08A9A59EC0DF08A8A64EC0DF0E3
:1041C8008A9A8A928A868A8A64EC0DF08A9A59ECCD
:1041D8000DF08A968A808A8A64EC0DF08A9A8A9011
:1041E8008A8A64EC0DF08A9A59EC0DF08A8A64EC9C
:1041F8000DF08A9A8A808A8A64EC0DF08A9A59ECC2
:104208000DF08A908A8A64EC0DF08A9A8A868A84EC
:104218008A828A808A8A64EC0DF08A9A59EC0DF0B9
:0642280001017781120084
:10422E002F0E0501066F4B0E076F000E086FFEEC8A
:10423E0019F0F9EC19F030EC1AF000016F51000A88
:10424E00FAE0EFDDE50E0501066F4A0E076F000E70
:10425E00086FFEEC19F0690E066F010E076F5DEC2C
:10426E001CF05A0E066F010E076F5DEC1CF0F9EC98
:10427E0019F0010E0501526FDCEC15F050C106F578
:10428E0051C107F55F0E0501086F010E096F63EC52
:10429E001CF052C106F553C107F5640E086F010EEE
:1042AE00096F63EC1CF095C106F596C107F5690E12
:1042BE00086F010E096F63EC1CF097C106F598C1EB
:1042CE0007F55A0E086F010E096F63EC1CF0010E14
:1042DE00476F010E486F5F0E496F010E4A6F44EC37
:1042EE0018F0010E0501476F080E486F640E496FF6
:1042FE00010E4A6F44EC18F0020E0501476F010ED5
:10430E00486F690E496F010E4A6F44EC18F0020EA9
:10431E000501476F080E486F5A0E496F010E4A6F1E
:10432E0044EC18F001019751525D0501526F0101E5
:10433E00985153590501536F22EC16F0800E011857
:10434E00026F800E025D02E1010E005C000ED8B01D
:10435E00010E026F01019551505D0501526F010171
:10436E00965151590501536F22EC16F0800E01182B
:10437E00026E800E025C02E1010E005C000ED8B0EF
:10438E00010E026E02500211006ED8B4B1D00101BE
:10439E009751525D016E98515359026E000E025C98
:1043AE0002E1010E015C1FE3550E0501066F000EC2
:1043BE00076F5F0E086F000E096FACEC1CF0010169
:1043CE009751525D006E98515359016E180E046E3E
:1043DE00150E056EAEEC19F000C0CFF001C0D0F096
:1043EE001BDD6FEC19F001015251975D016E5351B7
:1043FE009859026E000E025C02E1010E015C1FE391
:10440E00090E0501066F010E076F130E086F010EE0
:10441E00096FACEC1CF001015251975D006E5351C7
:10442E009859016E180E046E150E056EAEEC19F04D
:10443E0000C0CFF001C0D0F0EFDC6FEC19F001013D
:10444E009551505D016E96515159026E000E025CEF
:10445E0002E1010E015C1FE3630E0501066F010E02
:10446E00076F050E086F000E096FACEC1CF0010112
:10447E009551505D006E96515159016E180E046E95
:10448E00150E056EAEEC19F000C0CFF001C0D0F0E5
:10449E00C3DC6FEC19F001015051955D016E515165
:1044AE009659026E000E025C02E1010E015C1FE3E2
:1044BE00AF0E0501066F000E076FB90E086F000EE6
:1044CE00096FACEC1CF001015051955D006E51511D
:1044DE009659016E180E046E150E056EAEEC19F09F
:1044EE0000C0CFF001C0D0F097DC6FEC19F01AD7F6
:0644FE000001796B1200C1
:1045040000017951030A2BE130EC1AF004019B51AC
:10451400000A010ED8A4000E016E9B51010A010E7F
:10452400D8A4000E006E0150001204E01AEC18F03A
:104534001FEC18F09B51020A11E1B6EC17F03FECA6
:1045440018F0090E0B6E1E0E0C6EE40E0D6E0D2E81
:10455400FED70C2EFCD70B2EFAD70000D1D71AECBD
:0845640018F01FEC18F0120022
:10456C00A69C02C5A9FFA69EA680A8CF00F01200AB
:10457C00949894968B988B9694889486C79EC79C97
:06458C00380EC66E12009D
:104592000900F5CFE6FF0006FBE10106F9E1120092
:1045A200AECF01F0ABA202D0AB98AB8801C000F055
:0245B2001200F5
:1045B40074CF01F071A202D07198718801C000F02B
:0245C4001200E3
:1045C6000F013C6B846A8D6A9694386B929A809A36
:1045D600396B936A8A6A3A6B94903B6B9590606AE2
:1045E600C26AB886B06A8A0EAF6EAC8462DD708627
:1045F600060E766E820E756E728487DD61EC19F09A
:10460600B0DD010E0501526FDCEC15F00C0E050154
:10461600526FDCEC15F0050E0B6E0F0E0C6EF10EE4
:104626000D6E0D2EFED70C2EFCD70B2EFAD7BA80A8
:10463600BA82C70EBB6E39DDBA80BA82C70EBB6EB0
:10464600C2DC050E0B6E0F0E0C6EF10E0D6E0D2EEE
:10465600FED70C2EFCD70B2EFAD7FF0E0501026FE4
:10466600B6DCFF0E0501026FE9DC050E0B6E0F0EC0
:104676000C6EF10E0D6E0D2EFED70C2EFCD70B2EEA
:10468600FAD7A00EC86E77DF050E0B6E0F0E0C6EF6
:10469600F10E0D6E0D2EFED70C2EFCD70B2EFAD773
:0246A600120000
:1046A8000501026B5FDF00C001F5010E026F5ADFE2
:1046B80000C003F0026A02500111006E000E0310E0
:1046C800016E00C054F101C055F1020E026F4ADFBD
:1046D80000C001F5030E026F45DF00C003F0026A57
:1046E80002500111006E000E0310016E00C056F159
:1046F80001C057F1040E026F35DF00C001F5050E49
:10470800026F30DF00C003F0026A02500111006E30
:10471800000E0310016E00C058F101C059F1060ED9
:10472800026F20DF00C001F5070E026F1BDF00C01B
:1047380003F0026A02500111006E000E0310016EB0
:1047480000C08CF101C08DF1080E026F0BDF00C0B4
:1047580001F5090E026F06DF00C003F0026A02507D
:104768000111006E000E0310016E00C08EF101C031
:104778008FF10A0E026FF6DE00C001F50B0E026F14
:10478800F1DE00C003F0026A02500111006E000E53
:104798000310016E00C090F101C091F1FF0E0101FC
:1047A800551902E1FF0E541936E1FF0E571902E1BF
:1047B800FF0E561930E1FF0E591902E1FF0E581984
:1047C8002AE1FF0E8D1902E1FF0E8C1924E1FF0E7C
:1047D8008F1902E1FF0E8E191EE1FF0E911902E1F9
:1047E800FF0E901918E1780E546F010E556F9C0E4C
:1047F800566F010E576F980E586F010E596F9F0E26
:104808008C6FFE0E8D6F2A0E8E6FFE0E8F6F960EBA
:08481800906FFE0E916F12007B
:1048200008D012D004DD10D06DDE0ED00001796BFF
:104830000BD000017951000AF4E07951010AF2E04D
:0A4840007951030AF1E0F2D71200EB
:10484A00010E0501526FDCEC15F0010E0501476FF0
:10485A00010E486FF50E496F000E4A6F44EC18F0CE
:10486A001F0E0501066F4B0E076F000E086FFEEC58
:10487A0019F0F9EC19F061EC19F0F40E0501066F64
:10488A004A0E076F000E086FFEEC19F0F9EC19F0EA
:10489A0061EC19F0290E0501066F4B0E076F000E29
:1048AA00086FFEEC19F0F9EC19F061EC19F0030E3F
:1048BA000501066F4B0E076F000E086FFEEC19F02C
:1048CA003B0E066F4B0E076F000E086FFEEC19F0D9
:1048DA00F9EC19F0120E0501066F4B0E076F000E68
:1048EA00086FFEEC19F0350E066F4B0E076F000EBF
:1048FA00086FFEEC19F0F9EC19F061EC19F061ECB3
:10490A0019F0010E0501476F010E486F040E496F39
:10491A00010E4A6F44EC18F004019C6B9D8AF28CDC
:08492A00F28E61EC19F012009D
:10493200A0EC25F047DE010E0501526FDCEC15F00C
:10494200010E0501476F010E486FC50E496F000E3B
:104952004A6F44EC18F0A7DE520E0B6E2B0E0C6E53
:10496200000E0D6E0D2EFED70C2EFCD70B2EFAD795
:104972000000010E946F0001796B66DF30EC1AF0D3
:064982004EDFFCD7FFD759
:104B400010EE19F0310E006E020E016E880EF66E38
:0E4B5000490EF76E000EF86EC9EC22F012004E
:0E4988004A6F79737469636B204C6566740026
:054996004C6566740091
:0F499B004A6F79737469636B205269676874009F
:0349AA0055500065
:0E49AD004A6F79737469636B20446F776E00F4
:0549BB00446F776E005F
:0649C000526967687400F3
:0A49C60052656365697665643A0086
:0249D0000000E5
:0C49D2004A6F79737469636B20557000A4
:0149DE0000D8
:0949DF00475053204D6F64650040
:0149E80000CE
:0749E900475053204F4B0023
:0A49F00050617468204D6F6465008B
:0E49FA004A6F79737469636B204D6F646500BA
:0E4A08004A6F79737469636B204D6F646500AB
:0A4A160046726565204D6F6465006F
:0A4A200046726565204D6F64650065
:0A4A2A0050617468204D6F64650050
:0A4A340049276D20526F626F740075
:024A3E00000076
:024A4000000074
:0C4A420057616974696E6720475053008B
:074A4E00244750474C4C00C7
:014A55000060
:094A5600475053204D6F646500C8
:054A5F005265616400D6
:0F4A6400436F6E6669677572696E6720427400F2
:104A73005761697420436F6E6E656374696F6E006E
:0B4A83004E4F20434152524945520063
:0E4A8E00446973636F6E6E6563746564210026
:0D4A9C00526563656976696E672E2E2E00E7
:054AA90052494E4700D8
:0B4AAE00436F6E6E6563746564210049
:104AB900063C04847D9F6A845C900184604D3B813F
:084AC90051EC477CDE8D9F7665
:104AD100063C0484C0590B8574044484F99B4F82BD
:044AE1000000007F52
:0F4AE500526F76657220506F736974696F6E003F
:0F4AF4005345542042542050414952202A20005B
:0F4B03005345542042542041555448202A200045
:0D4B1200534554204254204E414D45200093
:0A4B1F0053455420524553455400FD
:064B290052455345540003
:064B2F005265616479008B
:064B3500526F626F740074
:054B3B003030303000B5
:020000040030CA
:0D000100331F3CFFBF81FF0FC00FE00F4019
:00000001FF
